:020000040800F2
:100000000000022055230008D1110008D911000872
:10001000E1110008E9110008F111000800000000DA
:10002000000000000000000000000000F9110008BE
:100030000712000800000000151200082312000833
:10004000A5230008A5230008A5230008A523000870
:10005000A5230008A5230008A5230008A523000860
:10006000A5230008A5230008A5230008A523000850
:10007000A5230008A5230008A5230008A523000840
:10008000A5230008A5230008A5230008A523000830
:10009000A5230008A5230008A5230008A523000820
:1000A000A5230008A5230008A5230008A523000810
:1000B000A5230008A5230008A5230008A523000800
:1000C000A5230008A5230008A5230008A5230008F0
:1000D000A5230008A5230008A5230008A5230008E0
:1000E000A5230008A5230008A5230008A5230008D0
:1000F000A5230008A5230008A5230008A5230008C0
:10010000A5230008A5230008A5230008A5230008AF
:10011000A5230008A5230008A5230008A52300089F
:10012000A5230008A5230008A5230008A52300088F
:10013000A52300080000000000000000A52300081F
:10014000A5230008A5230008A5230008A52300086F
:10015000A5230008A5230008A5230008A52300085F
:10016000A5230008A5230008A5230008A52300084F
:10017000A5230008A5230008A5230008000000000F
:1001800000000000A523000800000000000000009F
:10019000A52300080000000000000000A5230008BF
:1001A000000000000000000000000000A52300087F
:1001B000A5230008A5230008A5230008A5230008FF
:0401C000A52300086B
:1001C80010B5054C237833B9044B13B10448AFF389
:1001D80000800123237010BD2000002000000000D3
:1001E8000024000808B5034B1BB103490348AFF3CB
:1001F800008008BD00000000240000200024000842
:1002080081F0004102E000BF83F0004330B54FEABF
:1002180041044FEA430594EA050F08BF90EA020F2C
:100228001FBF54EA000C55EA020C7FEA645C7FEABF
:10023800655C00F0E2804FEA5454D4EB5555B8BFE2
:100248006D420CDD2C4480EA020281EA030382EA53
:10025800000083EA010180EA020281EA0303362DE5
:1002680088BF30BD11F0004F4FEA01314FF4801CB8
:100278004CEA113102D0404261EB410113F0004FCA
:100288004FEA03334CEA133302D0524263EB430381
:1002980094EA050F00F0A780A4F10104D5F1200E1F
:1002A8000DDB02FA0EFC22FA05F2801841F100017A
:1002B80003FA0EF2801843FA05F359410EE0A5F14E
:1002C80020050EF1200E012A03FA0EFC28BF4CF07F
:1002D800020C43FA05F3C01851EBE37101F0004535
:1002E80007D54FF0000EDCF1000C7EEB00006EEB42
:1002F8000101B1F5801F1BD3B1F5001F0CD34908CC
:100308005FEA30004FEA3C0C04F101044FEA445222
:1003180012F5800F80F09A80BCF1004F08BF5FEAA9
:10032800500C50F1000041EB045141EA050130BD89
:100338005FEA4C0C404141EB0101013C28BFB1F59B
:10034800801FE9D291F0000F04BF01460020B1FAE6
:1003580081F308BF2033A3F10B03B3F120020CDAB9
:100368000C3208DD02F1140CC2F10C0201FA0CF097
:1003780021FA02F10CE002F11402D8BFC2F1200CFC
:1003880001FA02F120FA0CFCDCBF41EA0C019040B2
:10039800E41AA2BF01EB0451294330BD6FEA0404FB
:1003A8001F3C1CDA0C340EDC04F11404C4F12002E6
:1003B80020FA04F001FA02F340EA030021FA04F3F8
:1003C80045EA030130BDC4F10C04C4F1200220FA4F
:1003D80002F001FA04F340EA0300294630BD21FA8D
:1003E80004F0294630BD94F0000F83F4801306BF53
:1003F80081F480110134013D4EE77FEA645C18BF47
:100408007FEA655C29D094EA050F08BF90EA020FDD
:1004180005D054EA000C04BF1946104630BD91EAD5
:10042800030F1EBF0021002030BD5FEA545C05D1D8
:100438004000494128BF41F0004130BD14F5800417
:100448003CBF01F5801130BD01F0004545F0FE418B
:1004580041F470014FF0000030BD7FEA645C1ABFC0
:10046800194610467FEA655C1CBF0B46024650EAF7
:10047800013406BF52EA033591EA030F41F4002123
:1004880030BD00BF90F0000F04BF0021704730B5A9
:100498004FF4806404F132044FF000054FF000017E
:1004A80050E700BF90F0000F04BF0021704730B53F
:1004B8004FF4806404F1320410F0004548BF404214
:1004C8004FF000013EE700BF42004FEAE2014FEA69
:1004D80031014FEA02701FBF12F07F4393F07F4F44
:1004E80081F06051704732F07F4208BF704793F047
:1004F8007F4F04BF41F40021704730B54FF460745A
:1005080001F0004521F000411CE700BF50EA01025C
:1005180008BF704730B54FF000050AE050EA010205
:1005280008BF704730B511F0004502D5404261EB75
:1005380041014FF4806404F132045FEA915C3FF4B6
:10054800D8AE4FF003025FEADC0C18BF03325FEA53
:10055800DC0C18BF033202EBDC02C2F1200300FA04
:1005680003FC20FA02F001FA03FE40EA0E0021FA29
:1005780002F11444BDE600BF70B54FF0FF0C4CF417
:10058800E06C1CEA11541DBF1CEA135594EA0C0FC9
:1005980095EA0C0F00F0DEF82C4481EA030621EA04
:1005A8004C5123EA4C5350EA013518BF52EA03353F
:1005B80041F4801143F4801338D0A0FB02CE4FF0F1
:1005C8000005E1FB02E506F00042E0FB03E54FF021
:1005D8000006E1FB03569CF0000F18BF4EF0010E19
:1005E800A4F1FF04B6F5007F64F5407404D25FEA15
:1005F8004E0E6D4146EB060642EAC62141EA5551C8
:100608004FEAC52040EA5E504FEACE2EB4F1FD0C09
:1006180088BFBCF5E06F1ED8BEF1004F08BF5FEA87
:10062800500E50F1000041EB045170BD06F0004639
:1006380046EA010140EA020081EA0301B4EB5C04E6
:10064800C2BFD4EB0C0541EA045170BD41F48011DE
:100658004FF0000E013C00F3AB8014F1360FDEBF03
:10066800002001F0004170BDC4F10004203C35DADF
:100678000C341BDC04F11404C4F1200500FA05F362
:1006880020FA04F001FA05F240EA020001F0004203
:1006980021F0004110EBD37021FA04F642EB060179
:1006A8005EEA430E08BF20EAD37070BDC4F10C04A3
:1006B800C4F1200500FA04F320FA05F001FA04F267
:1006C80040EA020001F0004110EBD37041F1000153
:1006D8005EEA430E08BF20EAD37070BDC4F120055E
:1006E80000FA05F24EEA020E20FA04F301FA05F2C6
:1006F80043EA020321FA04F001F0004121FA04F26E
:1007080020EA020000EBD3705EEA430E08BF20EA3D
:10071800D37070BD94F0000F0FD101F00046400077
:1007280041EB010111F4801F08BF013CF7D041EAF9
:10073800060195F0000F18BF704703F000465200FD
:1007480043EB030313F4801F08BF013DF7D043EACE
:100758000603704794EA0C0F0CEA135518BF95EA84
:100768000C0F0CD050EA410618BF52EA4306D1D10B
:1007780081EA030101F000414FF0000070BD50EA2A
:10078800410606BF1046194652EA430619D094EAB4
:100798000C0F02D150EA013613D195EA0C0F05D19E
:1007A80052EA03361CBF104619460AD181EA0301F2
:1007B80001F0004141F0FE4141F470014FF00000AA
:1007C80070BD41F0FE4141F4780170BD70B54FF045
:1007D800FF0C4CF4E06C1CEA11541DBF1CEA1355C5
:1007E80094EA0C0F95EA0C0F00F0A7F8A4EB0504A7
:1007F80081EA030E52EA03354FEA013100F088809E
:100808004FEA03334FF0805545EA131343EA126366
:100818004FEA022245EA111545EA10654FEA00261B
:100828000EF000419D4208BF964244F1FD0404F5D4
:10083800407402D25B084FEA3202B61A65EB030530
:100848005B084FEA32024FF480104FF4002CB6EBED
:10085800020E75EB030E22BFB61A754640EA0C006D
:100868005B084FEA3202B6EB020E75EB030E22BFAD
:10087800B61A754640EA5C005B084FEA3202B6EBEE
:10088800020E75EB030E22BFB61A754640EA9C00AD
:100898005B084FEA3202B6EB020E75EB030E22BF7D
:1008A800B61A754640EADC0055EA060E18D04FEA3B
:1008B800051545EA16754FEA06164FEAC30343EADB
:1008C80052734FEAC2025FEA1C1CC0D111F4801FA8
:1008D8000BD141EA00014FF000004FF0004CB6E7A1
:1008E80011F4801F04BF01430020B4F1FD0C88BF40
:1008F800BCF5E06F3FF6AFAEB5EB030C04BFB6EB4B
:10090800020C5FEA500C50F1000041EB045170BD3D
:100918000EF0004E4EEA113114EB5C04C2BFD4EB6A
:100928000C0541EA045170BD41F480114FF0000EEE
:10093800013C90E645EA060E8DE60CEA135594EA6A
:100948000C0F08BF95EA0C0F3FF43BAF94EA0C0F6D
:100958000AD150EA01347FF434AF95EA0C0F7FF4E2
:1009680025AF104619462CE795EA0C0F06D152EA36
:1009780003353FF4FDAE1046194622E750EA41061A
:1009880018BF52EA43067FF4C5AE50EA41047FF42B
:100998000DAF52EA43057FF4EBAE12E74FEA41028E
:1009A800B2F1E04324BFB3F5001CDCF1FE5C0DD9C5
:1009B80001F0004C4FEAC0024CEA5070B2F1004F0F
:1009C80040EB830008BF20F00100704711F0804F12
:1009D80021D113F13872BCBF01F00040704741F4D7
:1009E80080114FEA5252C2F11802C2F1200C10FADB
:1009F8000CF320FA02F018BF40F001004FEAC123BF
:100A08004FEAD32303FA0CFC40EA0C0023FA02F362
:100A18004FEA4303CCE77FEA625307D150EA013338
:100A28001EBF4FF0FE4040F44000704701F0004008
:100A380040F0FE4040F40000704700BF53B94AB987
:100A4800002908BF00281CBF4FF0FF314FF0FF30CE
:100A580000F088B9ADF1080C6DE904CE00F006F895
:100A6800DDF804E0DDE9022304B070472DE9F04722
:100A7800089D8E4604468846002B4AD18A4217466E
:100A880062D9B2FA82F64EB1C6F1200301FA06F82D
:100A980020FA03F3B74043EA0808B4404FEA174E78
:100AA8001FFA87FCB8FBFEF1230C0EFB118843EA02
:100AB800084301FB0CF29A4209D9FB1801F1FF30F7
:100AC80080F0EA809A4240F2E78002393B449A1A61
:100AD800A3B2B2FBFEF00EFB102243EA024300FB76
:100AE8000CFC9C4509D9FB1800F1FF3280F0D68038
:100AF8009C4540F2D3803B44023840EA0140A3EBD6
:100B08000C0300211DB1F3400022C5E90032BDE805
:100B1800F0878B4205D90DB1C5E9000100210846CF
:100B2800F5E7B3FA83F1002946D1734502D382422F
:100B380000F20581841A6EEB030201209046002D15
:100B4800E5D0C5E90048E2E7002A00F09080B2FA53
:100B580082F6002E40F0A4808A1A030C4FEA174E42
:100B680080B2BCB20121B2FBFEFC0EFB1C2243EAA0
:100B7800024304FB0CF29A4207D9FB180CF1FF3828
:100B880002D29A4200F2E080C4469B1AB3FBFEF2FE
:100B98000EFB123340EA034302FB04F49C4207D9DC
:100BA800FB1802F1FF3002D29C4200F2CA800246D2
:100BB8001B1B42EA0C40A5E7C1F120068B4022FA34
:100BC80006F71F430EFA01F420FA06F32EFA06FE82
:100BD8004FEA1749234300FA01F81FFA87FCBEFBC6
:100BE800F9F01C0C09FB10EE44EA0E4400FB0CFE65
:100BF800A64502FA01F209D93C1900F1FF3A80F042
:100C08009C80A64540F2998002383C44A4EB0E042F
:100C18001FFA83FEB4FBF9F309FB13444EEA0444BC
:100C280003FB0CFCA44508D93C1903F1FF3E80F0F6
:100C38008280A4457FD9023B3C4443EA0040A4EBB0
:100C48000C04A0FB02EC64457346E14662D35FD016
:100C58005DB1B8EB030264EB090404FA06F622FA64
:100C680001F31E43CC40C5E9006400214FE7B1FB06
:100C7800F2FC010C41EA0E4180B240EA01423B46D7
:100C880038463C46B846BE462026B1FBF7F1A2EBF3
:100C9800080241EA0C4166E7014618E710462CE7CE
:100CA800C6F120022EFA02F3B740B14020FA02F250
:100CB8004FEA174E0A43B3FBFEF8BCB20EFB1833DB
:100CC800110C41EA034108FB04F9B04089454FEA99
:100CD800104380B23ED9791808F1FF3C01D289450A
:100CE8001FD8A1EB0901B1FBFEF909FB04F80EFBC3
:100CF800191192B242EA0142424529D2BA1809F1C1
:100D0800FF31C4D24245C2D2A9F102013A44BEE73A
:100D1800F0459DD2BEEB02036CEB070C0138E146AF
:100D280096E7A7EB09094944A8F1020CB1FBFEF9C3
:100D380009FB04F8DBE773467FE7504666E7084699
:100D4800FDE63B44023A33E7ACF1020C3B441CE7B6
:100D580049469CE7A1EB0901C446B1FBFEF909FB32
:100D680004F8C4E7704700BF80B582B000AF01F057
:100D780045FA00F0B1F800F01DF900F005FA00237B
:100D88007B6086E001220121474801F037F901F034
:100D98009BFA0346454A1360454B00225A60444B70
:100DA8005B68444A1360444A7B6852F82300424A0D
:100DB8007B6852F823306422194600F04BF902464A
:100DC8000B463E487968C9000144C1E9002301F097
:100DD8007BFA03463A4A1360394B1A68334B1B684F
:100DE800D21A38497B6841F82320314B5B68364A70
:100DF8001360354B1A682F4B1B68D21A33497B682E
:100E080041F82320314A7B6852F823301846FFF70F
:100E180039FB23A3D3E90023FFF7D8FC02460B468E
:100E280010461946FFF7BAFD024629497B689B0020
:100E38000B441A60204A7B6852F823301E497A68AE
:100E480051F8222002FB03F307EE903AF8EEE76A26
:100E58001F4A7B689B00134493ED007AC6EE877A9D
:100E6800FCEEE77A17EE901A1A4A7B6842F82310CC
:100E7800012202210C4801F0C1F84FF47A7001F008
:100E88002FFA00220321084801F0B8F87B680133E3
:100E98007B607B68042B7FF775AF00BFFDE700BF61
:100EA80000000000389C9C41000402403C000020E7
:100EB800001000E050000020000000205800002032
:100EC80040000020800000205400002094000020F2
:100ED800A8000020BC00002080B594B000AF07F146
:100EE8001C0334220021184601F059FA07F10803BF
:100EF80000221A605A609A60DA601A6100237B60E7
:100F08002A4B1B6C294A43F080531364274B1B6CF4
:100F180003F080537B607B6800233B60244B1B6895
:100F280023F44043224A43F480431360204B1B6858
:100F380003F440433B603B680123FB614FF480337B
:100F48003B6202237B634FF48003BB630F23FB6385
:100F580090233B6402237B640223BB640223FB646B
:100F680007F11C03184600F017FC0346002B01D0BC
:100F780000F024F90F23BB600223FB6000233B61D0
:100F88004FF4A0537B614FF48053BB6107F1080312
:100F98000321184600F070F90346002B01D000F039
:100FA8000DF900BF5037BD4680BD00BF0038024074
:100FB8000070004080B588B000AF07F10C03002234
:100FC8001A605A609A60DA601A610023BB601F4B8E
:100FD8001B6B1E4A43F0040313631C4B1B6B03F08B
:100FE8000403BB60BB6800237B60184B1B6B174A6C
:100FF80043F080031363154B1B6B03F080037B6086
:101008007B6800233B60114B1B6B104A43F00203C3
:1010180013630E4B1B6B03F002033B603B6800221B
:10102800FF210B4800F0EAFFFF23FB6001233B612F
:1010380000237B610023BB6107F10C0319460448B8
:1010480000F048FE00BF2037BD4680BD0038024092
:10105800000402402DE9B00395B000AFF860B96014
:101068007A604FF47A73BB6340F6AC537B634FF4FA
:10107800FA633B6340F6C413FB624FF47A73BB62B6
:101088004FF47A637B623F494FF000024FF0000350
:10109800C1E900230023FB6465E00023BB645BE037
:1010A800BB6C7A6B03FB02F2FB6892FBF3F2FB6A00
:1010B800D31A3B62FB6C3A6B03FB02F2BB6892FBF0
:1010C800F3F2BB6AD31AFB6100237B6400233B6401
:1010D8000023FB631EE07B6C03FB03F23B6C03FB0A
:1010E80003F3D21ABB6B92FBF3F33A6A1344BB6166
:1010F8007B6C3A6C02FB03F35A00BB6B92FBF3F375
:10110800FA6913447B61BB697B647B693B64FB6B55
:101118000133FB637B6C03FB03F23B6C03FB03F3C0
:101128001A44BB6B92FBF3F37A6A9A4203DBFA6BBD
:101138007B689A42CFDBFB6BDA171C461546114BCE
:10114800D3E9002314EB020845EB03090D4BC3E96F
:101158000089BB6C0133BB64BA6CFB689A429FDBA5
:10116800FB6C0133FB64FA6CBB689A4295DB054B58
:10117800D3E90023104619465437BD46BDE8B003ED
:10118800704700BF4800002080B400AF094BDB68FF
:10119800084A43F08073D360074B00225A60064B1D
:1011A8001B68054A43F00103136000BFBD465DF8A4
:1011B800047B7047F0ED00E0001000E080B400AF61
:1011C80072B600BF00BFFDE780B400AF00BFFDE707
:1011D80080B400AF00BFFDE780B400AF00BFFDE7FB
:1011E80080B400AF00BFFDE780B400AF00BFFDE7EB
:1011F80080B400AF00BFBD465DF8047B704780B483
:1012080000AF00BFBD465DF8047B704780B400AFF7
:1012180000BFBD465DF8047B704780B500AF01F0A4
:101228003FF800BF80BD000080B483B000AF00234A
:101238007B60104B5B6C0F4A43F4804353640D4B47
:101248005B6C03F480437B607B6800233B60094B45
:101258001B6C084A43F080531364064B1B6C03F065
:1012680080533B603B6800BF0C37BD465DF8047B8C
:10127800704700BF0038024080B584B000AF786086
:1012880039607B68002B01D10123CCE0684B1B68D7
:1012980003F00F033A689A420CD9654B3A68D2B208
:1012A8001A70634B1B6803F00F033A689A4201D027
:1012B8000123B8E07B681B6803F00203002B20D0F1
:1012C8007B681B6803F00403002B05D0594B9B680F
:1012D800584A43F4E05393607B681B6803F00803A3
:1012E800002B05D0534B9B68524A43F460439360EC
:1012F800504B9B6823F0F0027B689B684D49134371
:101308008B607B681B6803F00103002B44D07B686B
:101318005B68012B07D1474B1B6803F40033002B94
:1013280019D101237FE07B685B68022B03D07B68BF
:101338005B68032B07D13F4B1B6803F00073002B3E
:1013480009D101236FE03B4B1B6803F00203002B1C
:1013580001D1012367E0374B9B6823F003027B68C8
:101368005B68344913438B6000F0AEFFF8600AE015
:1013780000F0AAFF0246FB68D31A41F28832934272
:1013880001D903234FE02B4B9B6803F00C027B68C9
:101398005B689B009A42EBD1254B1B6803F00F0357
:1013A8003A689A420CD2224B3A68D2B21A70204B51
:1013B8001B6803F00F033A689A4201D0012332E018
:1013C8007B681B6803F00403002B08D0194B9B684B
:1013D80023F4E0527B68DB68164913438B607B6813
:1013E8001B6803F00803002B09D0124B9B6823F4F9
:1013F80060427B681B69DB000E4913438B6000F079
:1014080021F802460B4B9B681B0903F00F030A499E
:10141800CB5C22FA03F3094A1360094B1B68184690
:1014280000F00EFF002318461037BD4680BD00BFF0
:10143800003C024000380240182400081C0000202C
:10144800140000202DE9B04FA6B000AF0023C7F864
:101458008C300023C7F894300023C7F88830002365
:10146800C7F884300023C7F89030C84B9B6803F056
:101478000C030C2B00F27E8101A252F823F000BF6E
:10148800BD1400087D1700087D1700087D170008A7
:10149800C51400087D1700087D1700087D1700088F
:1014A800CD1400087D1700087D1700087D17000877
:1014B80037160008B64BC7F890305FE1B54BC7F850
:1014C80090305BE1B14B5B6803F03F03C7F88C30A9
:1014D800AE4B5B6803F48003002B31D0AB4B5B68E9
:1014E8009B090022BB66FA66BB6EC3F308033B6622
:1014F80000237B66A74BD7E918452A4603FB02F26F
:101508000023214601FB03F31344A24A2146A1FB11
:101518000212FA670A46BA67FA6F1344FB67D7F8EC
:101528008C300022BB65FA65D7E91623D7E91E017E
:10153800FFF784FA02460B461346C7F8943064E076
:10154800924B5B689B0900223B657A653B6DC3F350
:101558000803BB640023FB64D7E9124522462B46E7
:101568004FF000004FF00001590141EAD2615001EB
:1015780002460B462146511A3961294663EB01039D
:101588007B614FF000024FF00003D7E904AB5946E6
:101598008B01514643EA916351468A015146B2EBA9
:1015A8000108594663EB01094FF000024FF00003B0
:1015B8004FEAC90343EA58734FEAC802904699466E
:1015C800234618EB0303BB602B4649EB0303FB6080
:1015D8004FF000024FF00003D7E9024529468B027D
:1015E800214643EA915321468A0210461946D7F804
:1015F8008C3000223B647A64D7E91023FFF71EFA87
:1016080002460B461346C7F89430604B5B681B0CC8
:1016180003F0030301335B00C7F88830D7F8942040
:10162800D7F88830B2FBF3F3C7F89030A6E0574BF1
:101638005B6803F03F03C7F88C30544B5B6803F4D6
:101648008003002B2AD0514B5B689B090022BB63A7
:10165800FA63BB6BC3F3080000214E4B03FB01F296
:10166800002300FB03F313444A4AA0FB02127A67E3
:101678000A463A677A6F13447B67D7F88C300022A2
:101688003B637A63D7E90C23D7E91C01FFF7D6F946
:1016980002460B461346C7F894305BE03B4B5B6849
:1016A8009B090022BB62FA62BB6AC3F308033B6270
:1016B80000237B62D7E9088942464B464FF0000079
:1016C8004FF00001590141EAD261500102460B4630
:1016D8004146B2EB010A494663EB010B4FF00002A9
:1016E8004FF000034FEA8B1343EA9A634FEA8A12DA
:1016F800B2EB0A0463EB0B054FF000024FF0000356
:10170800EB0043EA5473E20014461D464346E318CF
:101718003B604B4645EB03037B604FF000024FF004
:101728000003D7E9004529468B02214643EA915335
:1017380021468A0210461946D7F88C300022BB6130
:10174800FA61D7E90623FFF779F902460B461346F3
:10175800C7F894300D4B5B681B0F03F00703C7F8FD
:101768008430D7F89420D7F88430B2FBF3F3C7F865
:10177800903003E0064BC7F8903000BFD7F89030A0
:1017880018469837BD46BDE8B08F00BF0038024004
:101798000024F40040787D0180B586B000AF786001
:1017A8007B68002B01D101238DE27B681B6803F065
:1017B8000103002B00F08380944B9B6803F00C031B
:1017C800042B19D0914B9B6803F00C03082B06D10E
:1017D8008E4B5B6803F48003B3F5800F0CD08B4B02
:1017E8009B6803F00C030C2B12D1884B5B6803F445
:1017F8008003B3F5800F0BD1844B1B6803F40033CF
:10180800002B5BD07B685B68002B57D101235AE221
:101818007B685B68B3F5803F06D17C4B1B687B4ACD
:1018280043F4803313601DE07B685B68B3F5A02F39
:101838000CD1764B1B68754A43F480231360734BB5
:101848001B68724A43F4803313600BE06F4B1B68CC
:101858006E4A23F4803313606C4B1B686B4A23F485
:10186800802313607B685B68002B13D000F02CFD8D
:10187800386108E000F028FD02463B69D31A642B62
:1018880001D903231FE2614B1B6803F40033002BCB
:10189800F0D014E000F018FD386108E000F014FD05
:1018A80002463B69D31A642B01D903230BE2574B39
:1018B8001B6803F40033002BF0D100E000BF7B6805
:1018C8001B6803F00203002B6FD0504B9B6803F09A
:1018D8000C03002B17D04D4B9B6803F00C03082B0F
:1018E80005D14A4B5B6803F48003002B0BD0474BB0
:1018F8009B6803F00C030C2B1CD1444B5B6803F46E
:101908008003002B16D1414B1B6803F00203002B08
:1019180005D07B68DB68012B01D00123D3E13B4B69
:101928001B6823F0F8027B681B69DB003749134307
:101938000B603AE07B68DB68002B20D0344B012237
:101948001A6000F0C1FC386108E000F0BDFC0246F6
:101958003B69D31A022B01D90323B4E12B4B1B6833
:1019680003F00203002BF0D0284B1B6823F0F80289
:101978007B681B69DB00254913430B6015E0244B8A
:1019880000221A6000F0A0FC386108E000F09CFC1E
:1019980002463B69D31A022B01D9032393E11B4B5F
:1019A8001B6803F00203002BF0D17B681B6803F06F
:1019B8000803002B36D07B685B69002B16D0154BCB
:1019C80001221A6000F080FC386108E000F07CFC1D
:1019D80002463B69D31A022B01D9032373E10B4B4F
:1019E8005B6F03F00203002BF0D01BE0094B0022D1
:1019F8001A6000F069FC38610EE000F065FC0246F0
:101A08003B69D31A022B07D903235CE10038024053
:101A180000004742800E47428A4B5B6F03F0020387
:101A2800002BEAD17B681B6803F00403002B00F04D
:101A380097800023FB75834B1B6C03F08053002BAE
:101A48000FD10023BB607F4B1B6C7E4A43F0805351
:101A580013647C4B1B6C03F08053BB60BB68012391
:101A6800FB75794B1B6803F48073002B18D1764BF8
:101A78001B68754A43F48073136000F025FC3861D5
:101A880008E000F021FC02463B69D31A022B01D979
:101A9800032318E16C4B1B6803F48073002BF0D010
:101AA8007B689B68012B06D1664B1B6F654A43F028
:101AB800010313671CE07B689B68052B0CD1614B05
:101AC8001B6F604A43F0040313675E4B1B6F5D4A4C
:101AD80043F0010313670BE05A4B1B6F594A23F07D
:101AE80001031367574B1B6F564A23F00403136710
:101AF8007B689B68002B15D000F0E6FB38610AE094
:101B080000F0E2FB02463B69D31A41F28832934265
:101B180001D90323D7E04B4B1B6F03F00203002BC3
:101B2800EED014E000F0D0FB38610AE000F0CCFB06
:101B380002463B69D31A41F28832934201D9032302
:101B4800C1E0404B1B6F03F00203002BEED1FB7D7D
:101B5800012B05D13B4B1B6C3A4A23F0805313648D
:101B68007B689B69002B00F0AD80364B9B6803F0C7
:101B78000C03082B60D07B689B69022B45D1334B43
:101B880000221A6000F0A0FB386108E000F09CFB1E
:101B980002463B69D31A022B01D9032393E0294B50
:101BA8001B6803F00073002BF0D17B68DA697B684F
:101BB8001B6A1A437B685B6A9B011A437B689B6AB2
:101BC8005B08013B1B041A437B68DB6A1B061A434C
:101BD8007B681B6B1B071B4913434B601B4B012284
:101BE8001A6000F071FB386108E000F06DFB0246F6
:101BF8003B69D31A022B01D9032364E0114B1B68FC
:101C080003F00073002BF0D05CE0104B00221A6048
:101C180000F05AFB386108E000F056FB02463B69C9
:101C2800D31A022B01D903234DE0064B1B6803F09E
:101C38000073002BF0D145E07B689B69012B07D12D
:101C4800012340E000380240007000406000474235
:101C58001F4B5B68FB607B689B69012B30D0FB687E
:101C680003F480027B68DB699A4229D1FB6803F0A0
:101C78003F027B681B6A9A4222D1FA6847F6C07312
:101C880013407A68526A9201934219D1FB6803F4AF
:101C980040327B689B6A5B08013B1B049A420FD168
:101CA800FB6803F070627B68DB6A1B069A4207D107
:101CB800FB6803F0E0427B681B6B1B079A4201D06C
:101CC800012300E0002318461837BD4680BD00BF39
:101CD8000038024080B489B000AF786039600023D2
:101CE8007B6100233B610023BB610023FB6165E14D
:101CF8000122FB6902FA03F37B613B681B687A697E
:101D080013403B613A697B699A4240F054813B68D1
:101D18005B6803F00303012B05D03B685B6803F0A5
:101D28000303022B30D17B689B68BB61FB695B00B6
:101D3800032202FA03F3DB43BA691340BB613B6831
:101D4800DA68FB695B0002FA03F3BA691343BB6103
:101D58007B68BA699A607B685B68BB610122FB6932
:101D680002FA03F3DB43BA691340BB613B685B6863
:101D78001B0903F00102FB6902FA03F3BA69134372
:101D8800BB617B68BA695A603B685B6803F0030310
:101D9800032B17D07B68DB68BB61FB695B00032200
:101DA80002FA03F3DB43BA691340BB613B689A68E4
:101DB800FB695B0002FA03F3BA691343BB617B68F2
:101DC800BA69DA603B685B6803F00303022B23D12E
:101DD800FB69DA087B68083253F82230BB61FB697B
:101DE80003F007039B000F2202FA03F3DB43BA69EF
:101DF8001340BB613B681A69FB6903F007039B004A
:101E080002FA03F3BA691343BB61FB69DA087B681A
:101E18000832B96943F822107B681B68BB61FB690B
:101E28005B00032202FA03F3DB43BA691340BB6188
:101E38003B685B6803F00302FB695B0002FA03F38B
:101E4800BA691343BB617B68BA691A603B685B680F
:101E580003F44033002B00F0AE800023FB605D4BA1
:101E68005B6C5C4A43F4804353645A4B5B6C03F4E9
:101E78008043FB60FB68584AFB699B08023352F8B1
:101E88002330BB61FB6903F003039B000F2202FAB6
:101E980003F3DB43BA691340BB617B684F4A934243
:101EA80025D07B684E4A93421FD07B684D4A9342A7
:101EB80019D07B684C4A934213D07B684B4A9342B3
:101EC8000DD07B684A4A934207D07B68494A9342BF
:101ED80001D106230CE007230AE0052308E00423C8
:101EE80006E0032304E0022302E0012300E00023CC
:101EF800FA6902F0030292009340BA691343BB6186
:101F08003549FB699B080233BA6941F823203A4BEB
:101F18009B68BB613B69DB43BA691340BB613B68A3
:101F28005B6803F48013002B03D0BA693B69134341
:101F3800BB61314ABB6993602F4BDB68BB613B696E
:101F4800DB43BA691340BB613B685B6803F4001369
:101F5800002B03D0BA693B691343BB61264ABB69AE
:101F6800D360254B5B68BB613B69DB43BA691340AF
:101F7800BB613B685B6803F40033002B03D0BA698C
:101F88003B691343BB611C4ABB6953601A4B1B680E
:101F9800BB613B69DB43BA691340BB613B685B6863
:101FA80003F48033002B03D0BA693B691343BB6148
:101FB800114ABB691360FB690133FB61FB690F2B95
:101FC8007FF696AE00BF00BF2437BD465DF8047BA0
:101FD800704700BF0038024000380140000002404E
:101FE8000004024000080240000C024000100240B9
:101FF8000014024000180240003C014080B483B045
:1020080000AF78600B467B8013467B707B78002B93
:1020180003D07A887B689A6103E07B881A047B681E
:102028009A6100BF0C37BD465DF8047B704700001D
:1020380080B485B000AF78607B6803F00703FB606D
:102048000C4BDB68BB60BA684FF6FF031340BB60FC
:10205800FB681A02BB68134343F0BF6343F40033C1
:10206800BB60044ABB68D36000BF1437BD465DF847
:10207800047B704700ED00E080B400AF044BDB68E0
:102088001B0A03F007031846BD465DF8047B70473A
:1020980000ED00E080B483B000AF03463960FB7107
:1020A80097F90730002B0ADB3B68DAB20C4997F93D
:1020B80007301201D2B20B4483F800230AE03B68D0
:1020C800DAB20849FB7903F00F03043B1201D2B2DC
:1020D8000B441A7600BF0C37BD465DF8047B704789
:1020E80000E100E000ED00E080B489B000AFF860E6
:1020F800B9607A60FB6803F00703FB61FB69C3F111
:102108000703042B28BF0423BB61FB690433062B98
:1021180002D9FB69033B00E000237B614FF0FF32EB
:10212800BB6902FA03F3DA43BB681A407B699A4039
:102138004FF0FF317B6901FA03F3D9437B680B4009
:10214800134318462437BD465DF8047B70470000EA
:1021580080B582B000AF78607B68013BB3F1807FC7
:1021680001D301230FE00A4A7B68013B53600F212A
:102178004FF0FF30FFF78EFF054B00229A60044BAB
:1021880007221A60002318460837BD4680BD00BFE5
:1021980010E000E080B582B000AF78607868FFF7A3
:1021A80047FF00BF0837BD4680BD80B586B000AF89
:1021B8000346B9607A60FB7300237B61FFF75CFF1D
:1021C80078617A68B9687869FFF78EFF024697F9EF
:1021D8000F3011461846FFF75DFF00BF1837BD46A0
:1021E80080BD80B582B000AF78607868FFF7B0FF37
:1021F800034618460837BD4680BD000080B500AFCD
:102208000E4B1B680D4A43F4007313600B4B1B689D
:102218000A4A43F480631360084B1B68074A43F477
:10222800807313600320FFF7B5FF0F2000F008F854
:10223800FEF7FAFF0023184680BD00BF003C0240AD
:1022480080B582B000AF7860124B1A68124B1B78C9
:1022580019464FF47A73B3FBF1F3B2FBF3F3184664
:10226800FFF7BFFF0346002B01D001230EE07B6878
:102278000F2B0AD8002279684FF0FF30FFF795FF3F
:10228800064A7B681360002300E0012318460837DC
:10229800BD4680BD1C00002018000020140000204E
:1022A80080B400AF064B1B781A46064B1B681344D4
:1022B800044A136000BFBD465DF8047B704700BF49
:1022C80018000020D000002080B400AF034B1B682A
:1022D8001846BD465DF8047B704700BFD00000205B
:1022E80080B584B000AF7860FFF7EEFFB8607B6818
:1022F800FB60FB68B3F1FF3F05D00A4B1B781A4619
:10230800FB681344FB6000BFFFF7DEFF0246BB68B3
:10231800D31AFA689A42F7D800BF00BF1037BD46F3
:1023280080BD00BF1800002080B400AF064BD3F872
:102338008830054A43F47003C2F8883000BFBD46B0
:102348005DF8047B704700BF00ED00E0DFF834D093
:10235800FFF7EAFF0C480D490D4A002302E0D45864
:10236800C4500433C4188C42F9D30A4A0A4C0023D7
:1023780001E013600432A242FBD300F019F8FEF723
:10238800F3FC70470000022000000020200000201D
:102398003824000820000020D4000020FEE7024472
:1023A8000346934200D1704703F8011BF9E7000088
:1023B80070B50D4D0D4C641BA4100026A64209D122
:1023C8000B4D0C4C00F018F8641BA4100026A64214
:1023D80005D170BD55F8043B98470136EEE755F82E
:1023E800043B98470136F2E73024000830240008FF
:1023F8003024000834240008F8B500BFF8BC08BC35
:102408009E467047F8B500BFF8BC08BC9E467047AA
:10241800000000000000000001020304060708098C
:082428004CE6FF7F01000000FB
:04243000ED010008B2
:04243400C9010008D2
:1024380080000000A0000000C0000000E0000000D4
:102448000001000010000000010000000024F4005A
:040000050800235577
:00000001FF
