:020000040800F2
:1000000000200020F121000895180008971800082A
:1000100000000000000000000000000000000000E0
:100020000000000000000000000000009918000817
:1000300000000000000000009B1800089D18000848
:100040004122000841220008412200084122000804
:1000500041220008412200084122000841220008F4
:1000600041220008412200084122000841220008E4
:1000700041220008412200084122000841220008D4
:10008000412200084122000800000000412200082F
:1000900041220008412200084122000841220008B4
:1000A00041220008412200084122000841220008A4
:1000B000412200080000000041220008000000006A
:1000C00010B5064C2378002B07D1054B002B02D02E
:1000D000044800E000BF0123237010BD2000002071
:1000E000000000009C220008044B10B5002B03D038
:1000F0000349044800E000BF10BDC04600000000F6
:10010000240000209C220008002243088B4274D364
:1001100003098B425FD3030A8B4244D3030B8B4208
:1001200028D3030C8B420DD3FF22090212BA030C11
:100130008B4202D31212090265D0030B8B4219D3F2
:1001400000E0090AC30B8B4201D3CB03C01A524112
:10015000830B8B4201D38B03C01A5241430B8B425A
:1001600001D34B03C01A5241030B8B4201D30B0343
:10017000C01A5241C30A8B4201D3CB02C01A52416A
:10018000830A8B4201D38B02C01A5241430A8B422D
:1001900001D34B02C01A5241030A8B4201D30B0216
:1001A000C01A5241CDD2C3098B4201D3CB01C01A30
:1001B000524183098B4201D38B01C01A524143093A
:1001C0008B4201D34B01C01A524103098B4201D328
:1001D0000B01C01A5241C3088B4201D3CB00C01A95
:1001E000524183088B4201D38B00C01A524143080D
:1001F0008B4201D34B00C01A5241411A00D2014632
:10020000524110467047FFE701B5002000F0F0F8BA
:1002100002BDC0460029F7D076E7704703460B437E
:100220007FD4002243088B4274D303098B425FD3EF
:10023000030A8B4244D3030B8B4228D3030C8B421B
:100240000DD3FF22090212BA030C8B4202D3121201
:10025000090265D0030B8B4219D300E0090AC30BD6
:100260008B4201D3CB03C01A5241830B8B4201D383
:100270008B03C01A5241430B8B4201D34B03C01A6C
:100280005241030B8B4201D30B03C01A5241C30AE4
:100290008B4201D3CB02C01A5241830A8B4201D355
:1002A0008B02C01A5241430A8B4201D34B02C01A3F
:1002B0005241030A8B4201D30B02C01A5241CDD2E4
:1002C000C3098B4201D3CB01C01A524183098B422F
:1002D00001D38B01C01A524143098B4201D34B0118
:1002E000C01A524103098B4201D30B01C01A52417B
:1002F000C3088B4201D3CB00C01A524183088B4202
:1003000001D38B00C01A524143088B4201D34B00EA
:10031000C01A5241411A00D201465241104670475C
:100320005DE0CA0F00D04942031000D34042534061
:1003300000229C4603098B422DD3030A8B4212D321
:10034000FC22890112BA030A8B420CD38901921153
:100350008B4208D3890192118B4204D389013AD090
:10036000921100E08909C3098B4201D3CB01C01A65
:10037000524183098B4201D38B01C01A5241430978
:100380008B4201D34B01C01A524103098B4201D366
:100390000B01C01A5241C3088B4201D3CB00C01AD3
:1003A000524183088B4201D38B00C01A5241D9D2EB
:1003B00043088B4201D34B00C01A5241411A00D26C
:1003C0000146634652415B10104601D34042002B68
:1003D00000D54942704763465B1000D3404201B5E7
:1003E000002000F005F802BD0029F8D016E770479C
:1003F0007047C0469E2110B5C905041C00F0EAFFF5
:10040000002803D1201C00F087FB10BD9E21201C7A
:10041000C90500F01DF900F07FFB80231B069C46F8
:100420006044F2E7F0B546464F46D6464502C0B5B1
:10043000C30F470098460E1C6D0A3F0E5BD0FF2F7E
:1004400021D08023ED00DB041D43002399469A460A
:100450007F3F74027300640A1B0EF60F002B20D03E
:10046000FF2B43D080220020E400D20414437F3BC2
:100470004246FF1A4B4672400F2B00D99DE071494E
:100480009B00CB589F46002D5AD108239946063B26
:1004900074029A467300FF27640A1B0EF60F002BA6
:1004A000DED1002C3BD1012342464946724019431C
:1004B0000E2918D86448890041588F465346022BAC
:1004C00000D1B8E0032B6ED042462C00012B40D166
:1004D00000200024C0052043D2071043E0BCBA46E8
:1004E000B146A846F0BDFF200024F3E7002C20D140
:1004F0000223FF3FD8E7002D05D104239946033B93
:1005000000279A46A5E7280000F06EFF7627431FD4
:100510009D4000237F4299469A463F1A99E7200062
:1005200000F062FF431F9C4076235B421B1A0020B1
:100530009EE703234A461A4391460320FC3397E77C
:100540000C239946093BFF279A4682E703282CD0C3
:10055000320038007F30002847DD630704D00F23C6
:100560002340042B00D00434230103D53800374B3B
:1005700080301C40FE28B6DCA401640AC0B2A9E7A2
:1005800080240022FF20E403A4E78023DB031D4234
:1005900001D01C420BD08024E4032C436402424669
:1005A000FF20640A96E746462C008023DB031C43A9
:1005B00064023200FF20640A8CE76D01600185420D
:1005C0002DD21B230024013F0126290064006D0069
:1005D000002901DB854201D32D1A3443013B002B56
:1005E000F3D16B1E9D412C43B3E701231B1A1B2B38
:1005F00000DD6DE721009E37D940BC400B00611E35
:100600008C412343590704D00F211940042900D0FD
:100610000433590113D49B0100205C0A5AE71A23C2
:1006200001242D1AD0E7981E43425841404232001F
:100630000024C0B24EE74246FF2000244AE70120D2
:10064000002447E7B4220008F4220008FFFFFFF768
:10065000F8B54746CE46430280B55F0A9B09450080
:100660004A009C464B02C40FCE0F2D0E580A120EA4
:100670009909FF2A6BD001235E40AB1AB4424BD0DC
:10068000002B00DCFFE0002A00D188E0FF2D00D124
:10069000EFE08022D204114301201B2B08DC08006C
:1006A0002022D840D31A99400B005A1E9341184378
:1006B00063461B1A9C4663465B0100D4CDE063464B
:1006C0009F01BF09380000F08FFE3B0005388340D2
:1006D000854200DCA2E0B74A2D1A1A4094465A0718
:1006E00000D1C3E00F221340042B00D1BEE004234D
:1006F0009846C44463465B0100D4B7E0681CFE2DF5
:1007000000D0A5E0FF200022C0051043E4072043ED
:10071000C0BCB946B046F8BD002B00DCEBE1002AB6
:1007200046D0FF2D00D1A4E08022D20411431B2B20
:1007300000DCFBE0052398462B00C4446246D70842
:10074000FF2B00D195E07A02520AD8B2DCE72B00E9
:10075000FF3B9946002918D101235E40B44200D1E5
:10076000CAE04B46002B2DD0002D00D03CE1FF23EA
:100770006446002C00D15FE15D1E012B00D174E1C5
:100780003400FF2B74D02B0003E1B44200D19CE075
:10079000002B17D0002DEAD0070034006CE00029B0
:1007A000CCD05A1E012B2BD0FF2B62D0130073E745
:1007B0000029C3D05A1E012B00D11EE1FF2B58D0B7
:1007C0001300B4E7FE226B1C1A420DD1002D60D03D
:1007D0006346002B00D020E1002900D028E18022D0
:1007E0000024FF20D2038FE763465F1A7B0100D508
:1007F000FEE0002F00D065E700240020002283E700
:100800006346591A4B0100D419E18F01BF09380022
:1008100000F0EAFD3B000538834001252022401B03
:100820000130121A19009340C1405A1E93411943D6
:100830008C460B1EE1D05B0700D152E10F2300254F
:100840000B40042B00D052E701204A0100D492E073
:10085000C0B263469A01520A56E763465B0705D069
:100860000F2362461340042B00D040E72B0065E7BE
:100870000700002F00D145E78022D2033A435202FD
:10088000FF20520A40E7002B79D1FE226B1C1A424E
:10089000AAD16346002B00D1F5E0002900D1D1E0B8
:1008A0005F1A8023DB041F4200D10EE1624601245F
:1008B0008A1A944600203440002A00D124E70120FF
:1008C0001A42C6D10023D7083DE7002B17D0002DD0
:1008D00000D0AFE0FF236546002D00D1ADE05E1EE5
:1008E000012B00D189E0FF2BC2D01B2E00DCABE036
:1008F0004B1D9C46130021E74B46002B70D1FE2276
:100900006B1C1A425ED1002D00D0C3E06346002B61
:1009100000D1D0E0002900D194E00A0062445301E4
:1009200000D4D8E092010120520AEDE6080020220E
:10093000D840D31A99400B005A1E934103439C445C
:1009400063465B0189D50135FF2D00D1DAE66246A9
:1009500001231949134052080A401A4313009446D0
:100960005B0704D00F231340042B00D0BFE663467F
:100970005B0100D5C2E66346DF082B00E3E6531BAC
:10098000002D00D1F4E680206446C0040443A44650
:10099000340001201B2B09DC20256046D840EB1ACF
:1009A00065469D402B005D1EAB4118430B1A9C46CB
:1009B000150080E6FFFFFFFBFFFFFF7DFE226B1CA3
:1009C0001342A3D0FF2B00D19CE6614449084A079B
:1009D00049D00F220A40042A45D00A1D9446ADE6AC
:1009E000002D00D176E78DE63400FF2000228BE653
:1009F00063460124CF1A344064E661444B016DD54F
:100A000048084449014043072CD00F230340042BDE
:100A100028D00B1D9C46022390E6002900D12BE72D
:100A20008023DB039F4200D226E7984200D323E7CE
:100A30000124344007001FE734008C467EE6012382
:100A4000CF0880E600237EE620206546801B854097
:100A500063462800F340451EA84103439C46150009
:100A60008C446DE70223CF086DE60F1B7B0128D570
:100A7000BF01BF09380000F0B7FC3B0005388340D8
:100A800034000125CAE6002900D1B5E6012407009B
:100A9000344058E66346002B00D1E9E6002900D136
:100AA000EAE68023DB039F4200D2E5E6984200D3CA
:100AB000E2E60700E0E6002900D19EE60023CF0829
:100AC00041E634000123FF083DE6002F00D193E604
:100AD0000023FF0837E60023D70834E60123CF08B8
:100AE00031E680220B00D20401201340114200D0D5
:100AF000AEE6CF0827E6002B00D15FE7561B002D9E
:100B000001D13300E7E680236046DB0418438446C6
:100B1000EBE6C046FFFFFF7D41024200C30F490ADA
:100B20000020120E7E2A03DD9D2A02DD094A981854
:100B30007047802000040143952A07DC9620821A22
:100B4000D1404842002BF3D10800F1E7963A91409A
:100B5000F7E7C046FFFFFF7F70B5002812D0C3172C
:100B6000C5185D40C40F280000F03EFC9E231B1AF0
:100B7000962B0FDC082838D0083885406D026D0AA6
:100B8000D8B202E0002400200025C0052843E40775
:100B9000204370BD992B14DC421F95402A00154953
:100BA000114055071CD00F252A40042A18D00431C3
:100BB000CA08490115D59F235202181A550AC0B216
:100BC000E3E705222900121AD14002001B329540AA
:100BD0002A00551EAA410A43064911405507E2D191
:100BE000CA085202550AD8B2CFE76D026D0A8E309C
:100BF000CBE7C046FFFFFFFBF0B5DE464546574654
:100C00004E46E0B587B0009201930B031B0B9B4649
:100C1000CA0F4B00040080465B0D029200D198E0A1
:100C20007C4A934237D05946420FC9000A4380217B
:100C300009041143C2009046774A894692469A4475
:100C4000002300240393009E019F3B031B0B9B4644
:100C50007B0030005B0DFD0F002B59D06D4A934295
:100C600048D05946720FC9000A4380210904114334
:100C70008B466949F2008C4651466344CB1A9A462A
:100C80000021029E6E40F6B20F2C00D9CEE0634BDD
:100C9000A4001B599F465A460243914600D090E05B
:100CA0009A460223904608240393CCE7CB4642465B
:100CB000029D0399022900D1DEE1032900D18DE0D4
:100CC000012900D079E12E00002200230024904663
:100CD0001B052343F60733434046190007B0F0BC19
:100CE000BB46B246A946A046F0BD0022002490466D
:100CF000484BEDE75A46009B1A43494B9C46E24459
:100D0000002A59D102231C43002302219B46B8E745
:100D10005A46009B1A4349D05B46002B00D19CE108
:100D2000584600F061FB020003000B3A1D27009EAD
:100D3000BA1A19005846D640083988403200024392
:100D40009346009A8A40374953448A4600219A4480
:100D500097E75B460343994621D05B46002B00D1C1
:100D600069E1584600F040FB0B235B429C460200C1
:100D7000844466461D239B1B260011005846DE4016
:100D80000839884033000343994623008B40984636
:100D9000254B00249B1A9A460023039353E7002314
:100DA00098469A460133042403934CE701231C43DD
:100DB000002301219B4664E70323320003211C43E7
:100DC0005FE79A460323D9460C2403933BE70023AD
:100DD0008024984600260F4B240379E780245B4645
:100DE00024031C4324032E0090460A4B240B6FE778
:100DF00080244B462403234202D05B462342F0D09A
:100E000080244B4624031C432403029E014B240BE5
:100E10005EE7C046FF07000001FCFFFF302300082B
:100E200001F8FFFFF30300000DFCFFFFCB4500D2EC
:100E3000F8E000D1F3E001235B429C46444648467B
:100E40000025E2445B46170E1B021F43190C3B04AE
:100E5000120200971F0C914602910397FFF7DAF9EF
:100E600002007A430B04210C804619438A4209D9B7
:100E7000009F0123BC465B4261449C46E0448F4294
:100E800000D85CE1881A0299FFF7C4F9039A240498
:100E900042430904240C03000C43A24206D90099E2
:100EA000013B8C466444A14200D842E1A01A42466C
:100EB00012041A4393464B4659461B0C1F000493D9
:100EC0000B0449460904090C0C001B0C5C43120C72
:100ED0007B43884651437A43270CBC465B186344E6
:100EE000994203D9802149028C466244190C24049A
:100EF0001B04240C8A181C19904202D316D1A54257
:100F000014D25B46009F013B4D4405934D459B41E8
:100F1000BC465B426344C018874200D302E1824270
:100F200000D929E100D124E1059B9B462C1BA54259
:100F3000AD41009B801A6D42401B834200D10FE1FE
:100F40000299FFF767F9039A0B044243210C05004D
:100F500019438A4200D9CBE0881A0299FFF75AF95F
:100F6000039A240442430904240C03000C43A242C4
:100F700000D9CAE04146A41A2A041A43049F130464
:100F80001B0C594340467B439C46150C68430B0C95
:100F9000844463447D43984203D9802040028446C0
:100FA0006544180C09041B04090C40195B188442A1
:100FB00027D323D0012335001A43944B5344002BED
:100FC00060DD510700D086E02E00D1085A46D201DC
:100FD00006D55A468E4B1A4080239346DB00534475
:100FE0008C4A934200DD80E65A4652070A439046F7
:100FF0005A465B055402240B5B0D69E63500002B55
:10100000DBD0009D511EAC466444AC4200D29EE051
:10101000844200D2E1E000D1EEE00A00CAE7424596
:1010200000D908E74B46DC07580843465B081C43D9
:101030004346DD0706E700F0D7F915239C468444B4
:101040000200634620321C2B00DC92E623000838A5
:1010500083409946002398469AE600F0C5F90200BD
:101060000300153220331C2A00DC5FE600990838A3
:10107000814000228B4666E600222E000024904626
:10108000654B25E62E000121C91A382900DD1BE633
:101090001F297EDC6148140050445B468240834037
:1010A000CC40501E824123431A435B46CB4051073C
:1010B00009D00F211140042905D0111D9142924100
:1010C00052429B180A00190200D49BE0002201231F
:1010D00000249046FCE50F211140042900D173E75C
:1010E000111D9142924152422E00C90893446DE76E
:1010F000009B013D9C4661448B4200D92CE78A420B
:1011000000D829E7851E614426E70099013B8C46FB
:101110006444A14200D92DE7A24200D82AE7831EE9
:10112000644427E7874200D0FEE6A94500D9FBE6E4
:10113000F5E6A24200D8B9E6831E6444B6E68A42C8
:1011400000D89FE6BC46831E984661449AE60A0092
:10115000844200D02EE74B4500D02BE735002CE72A
:101160002A4B2F4A5344924543DB012200219344EA
:101170002CE7AC4200D8D7E602235B429C4600999C
:101180004D444D459B41E3448C465B426344C0184B
:10119000CCE61F204042C31A5846D840202904D02C
:1011A0005946204B534499400A43531E9A41072302
:1011B0001900024300241140134209D008331340A0
:1011C000042B1DD0131D934289411A00494249073F
:1011D000D2080A43904600237AE54946009F4D0015
:1011E0004D458941BC4649426144A946023A6418CA
:1011F000AEE70122524246E79945EED30A00AAE73C
:101200000021E5E759075B021C0BE1E7FF03000043
:10121000FFFFFFFEFE070000FF0700001E040000A6
:1012200002FCFFFF3E04000010B5041E10D000F0C9
:10123000DBF80E4B1B1A5B055B0D0A280FDC0B223B
:101240002100121AD14015300A038440120B01E02C
:10125000002300221B0513432000190010BD2200AB
:101260000B38824012030024120BF3E71E04000027
:10127000F0B54B000F035B0D3A4C450F83B07F0A6E
:101280005E1C2F4300900191CA0FC50026420BD06F
:1012900035495C18FE2C13DDFF200023C0051843E0
:1012A000D207104303B0F0BD3D43002B01D1002015
:1012B000F4E7002DF0D08023DB03FF203B43EDE774
:1012C000002C0CDD009BFF009B01581E8341690F21
:1012D0003B430B43590727D1DB08E0B2DEE721008F
:1012E000173131DB80211E2009043943001B1F28E0
:1012F0002DDD02267642341B0E00E6403400202805
:1013000004D01A488446634499400D432B00591E6B
:101310008B412343590703D00F21194004290BD1D6
:101320009B0100205B0AB9E70F211940042904D171
:101330009B015B0AE0B2B1E7002404335901F7D501
:1013400001340023E0B2A9E700200023A6E7084CFF
:101350001C192B00A540C340A140681E85412943AC
:101360000B43D7E7FE07000080FCFFFFA2FCFFFF56
:1013700082FCFFFF844608006146FFE71FB500F0CE
:10138000C1F8002801D40021C8421FBD10B500F0EB
:1013900049F84042013010BD10B500F0B3F8002804
:1013A00001DB002010BD012010BDC04610B500F0CB
:1013B000A9F8002801DD002010BD012010BDC046A5
:1013C00010B500F057F8002801DC002010BD012006
:1013D00010BDC04610B500F04DF8002801DA00201D
:1013E00010BD012010BDC0461C2101231B049842E2
:1013F00001D3000C10391B0A984201D3000A0839A6
:101400001B09984201D30009043902A2105C40185C
:101410007047C04604030202010101010000000000
:101420000000000070B542004E024C0045026D0AFB
:10143000120EC30F760A240EC90FFF2A10D0FF2CFC
:101440000CD00120A2420AD1B54208D18B420FD064
:10145000002A04D12800431E984100E0012070BDFD
:101460000120FF2CFBD13543F9D14B401800F6E7A2
:101470000020F4E730B5420044024D02C30F48009B
:10148000640A120E6D0A000EC90FFF2A18D0FF2839
:101490000AD0002A1ED100280AD1002D29D0002C04
:1014A0002DD14800013830BD002D25D1002A01D1B1
:1014B000002CF6D08B4219D001205B421843F2E792
:1014C000002C19D1FF28F7D1002D15D100208B4217
:1014D000F2D1E8E70028EFD08B42EDD18242EBDC7D
:1014E00004DBAC42E8D80020AC42DCD25800013822
:1014F000D9E7002CD7D0DFE702204042D3E78B4268
:10150000DAD1EEE730B5420044024D02C30F480085
:10151000640A120E6D0A000EC90FFF2A17D0FF28A9
:101520000AD0002A1BD100280AD1002D1DD0002C82
:101530002DD14800013811E0002D0ED1002A01D133
:10154000002CF6D08B420CD15800013806E0002C5C
:1015500003D1FF2805D1002D15D0022030BD002871
:1015600006D101205B421843F8E7002CF6D0F8E7DB
:101570008B42F6D18242F4DCE6DBAC42F1D80020AB
:10158000AC42EBD2E0E700208B42EAD1E6E78B42A7
:10159000E7D1F2E710B588B01422002103A800F0CB
:1015A00050FE174B5A698021C9030A435A615A6990
:1015B0000A400092009A5A698021C9020A435A617E
:1015C0005A690A400192019A5A69802189020A43A4
:1015D0005A615B690B400293029B0A4C0022FF2177
:1015E000200000F0A9FDFF230393FE3B049300239A
:1015F0000593069303A9200000F0DAFC08B010BDA3
:101600000010024000040048F0B5DE4657464E4642
:101610004546E0B587B0039005919246324B0020D5
:10162000002118605960002304934BE0C01AFA218E
:101630008900FEF7F3FD4844824628006043FA2102
:101640004900FEF7EBFD40440500013754462000F9
:1016500060432B006B43C118244A914201DCB7421E
:10166000E4DBB24620490097FB1701930A684B68F8
:10167000009C019D12196B410A604B6001239C463E
:10168000E344039B9B451ADA19485B465843039988
:10169000FEF7C4FD174B99468144049B5801C01ABC
:1016A00080009C46604400010599FEF7B7FD124B8F
:1016B000984680440027002500245646C7E7049B2F
:1016C00001330493049B059A934202DA00239B465C
:1016D000D7E7054B1868596807B0F0BCBB46B2465F
:1016E000A946A046F0BDC046C0000020E70C3D0062
:1016F000AC0D00003CF6FFFF18FCFFFF82B00B4B67
:10170000DA6901210A43DA61DB690B400193019B2D
:101710008023DB0500229A6201204042D8625A628F
:101720001A680A431A6002B07047C04600100240AF
:1017300072B6FEE700B591B03022002104A800F097
:1017400080FD10220021684600F07BFD02230493F7
:10175000012207920F3208920C93A0239B030E9351
:1017600004A800F0B7F800280ED107230093053B2A
:1017700001930023029303930121684600F022FBAA
:10178000002803D111B000BDFFF7D2FFFFF7D0FF53
:10179000F0B5D6464F464646C0B500F0D5FBFFF73C
:1017A000C9FFFFF7F7FEFFF7A9FF002557E02D4F10
:1017B00001220121380000F0BFFC00F0E1FB2A4BC0
:1017C0009A4618608023DB05984600234246536200
:1017D000536A264A91461360254EAC00A059FA225E
:1017E0000100FFF711FF234BEA009B1818605960B6
:1017F00000F0C6FB204B186053461B68C01A1F4BF5
:10180000E0504346586A1E4B18604B461B68C01A8E
:101810001C4BE050FFF708FD00221B4BFFF7ECF9D3
:10182000FFF726FD8046194BE050A0594043FFF7D3
:1018300093F94146FEF7F6FD154EFEF7DBFD3051FC
:1018400001220221380000F077FCFA20800000F02D
:101850009DFB00220321380000F06EFC0135042DB1
:10186000A5DDFEE700040048CC000020BC000020FD
:101870000000002090000020C80000207800002018
:10188000B80000206400002060E386415000002082
:101890003C000020FEE7FEE77047704710B500F0FF
:1018A00063FB10BD82B00A4B996901221143996113
:1018B00099690A400092009ADA69802149050A4331
:1018C000DA61DB690B400193019B02B07047C046AF
:1018D0000010024070B582B0041E00D12EE20368F1
:1018E000DB0726D5AE4B5A680C231340042B18D0C7
:1018F000AB4B5A680C231340082B0ED06368012BA6
:101900003CD0002B51D1A64B1A68A6490A401A6058
:101910001A68A5490A401A6036E0A14B5B68DB03F0
:10192000ECD59F4B1B689B0303D56368002B00D14C
:1019300007E223689B0772D5994B5B680C221A4219
:101940005DD0974B5A680C231340082B53D0E368A3
:10195000002B00D185E0924A136801210B431360EC
:1019600000F00EFB05008E4B1B689B0770D400F047
:1019700007FB401B0228F6D90320E0E1884A1168E2
:1019800080235B020B4313606368002B25D000F0BB
:10199000F7FA0500824B1B689B03CAD400F0F0FAEB
:1019A000401B6428F6D90320C9E1052B09D07C4BE4
:1019B0001A687C490A401A601A687B490A401A6012
:1019C000E2E7774B19688022D2020A431A6019684D
:1019D000802252020A431A60D6E700F0D1FA0500CD
:1019E0006F4B1B689B03A4D500F0CAFA401B642808
:1019F000F6D90320A3E16A4B5B68DB03A7D4684BED
:101A00001B689B0703D5E368012B00D09BE1644969
:101A10000B68F82293432269D20013430B602368BA
:101A20001B0744D5E369002B2ED05D4A536A012180
:101A30000B43536200F0A4FA0500594B5B6A9B0705
:101A400035D400F09DFA401B0228F6D9032076E138
:101A500053490B68F82293432269D20013430B6069
:101A6000DDE74F4A136801218B43136000F088FAC9
:101A700005004B4B1B689B07D1D500F081FA401B3A
:101A80000228F6D903205AE1454A536A01218B43C3
:101A9000536200F075FA0500414B5B6A9B0706D55F
:101AA00000F06EFA401B0228F6D9032047E12368B4
:101AB0005B0700D480E03A4BDB69DB001DD4384B78
:101AC000DA69802149050A43DA61DB690B40019339
:101AD000019B0125354B1B68DB0510D5A368012B45
:101AE00021D0002B36D12E4B1A6A01218A431A626B
:101AF0001A6A03318A431A621AE00025EAE72B4A80
:101B0000116880235B000B43136000F039FA060074
:101B1000264B1B68DB05E1D400F032FA801B6428F9
:101B2000F6D903200BE11E4A136A01210B4313620D
:101B3000A368002B24D000F023FA0600184B1B6A80
:101B40009B0737D400F01CFA801B194B9842F5D93B
:101B50000320F4E0052B09D0114B1A6A01218A43B6
:101B60001A621A6A03318A431A62E1E70C4B1A6A55
:101B700004210A431A621A6A03390A431A62D7E730
:101B800000F0FEF90600064B1B6A9B0712D500F019
:101B9000F7F9801B064B9842F5D90320CFE0C046E9
:101BA00000100240FFFFFEFFFFFFFBFF0070004040
:101BB00088130000012D33D02368DB0610D563693C
:101BC000012B33D0053351D1654A536B04218B432C
:101BD0005363536BF4318B43A169C9000B435363C7
:101BE000236A002B00D1B0E05D4A51680C220A4004
:101BF000082A00D18AE0022B4FD0594A136859496C
:101C00000B40136000F0BCF90400554B1B689B01AE
:101C10007AD500F0B5F9001B0228F6D903208EE032
:101C20004F4AD36950490B40D361C5E74C4B5A6BBF
:101C300004210A435A635A6B03390A435A6300F07A
:101C40009FF90500464B5B6B9B0706D400F098F9A3
:101C5000401B0228F6D9032071E041494B6BF82262
:101C60009343A269D20013434B63B9E73C4B5A6BD1
:101C700004210A435A635A6B03398A435A6300F0BA
:101C80007FF90500364B5B6B9B07A9D500F078F90F
:101C9000401B0228F6D9032051E0314A136831492C
:101CA0000B40136000F06CF905002D4B1B689B0185
:101CB00006D500F065F9401B0228F6D903203EE066
:101CC000274BDA6A0F218A43E16A0A43DA625A68CB
:101CD00026490A40A16A606A01430A435A601968AA
:101CE000802252040A431A6000F04AF904001C4B97
:101CF0001B689B0106D400F043F9001B0228F6D9AB
:101D000003201CE000201AE0002018E0012B1ED068
:101D1000134B5A68D86A80235B021340616A8B4276
:101D200017D10F230340E16A8B4214D1F0239B03A8
:101D30001A40A36A9A4210D1002000E0012002B0AC
:101D400070BD0120FBE70120F9E70020F7E7012043
:101D5000F5E70120F3E70120F1E70120EFE7C046B6
:101D600000100240FFFFFFFEFFFFFFEFFFFFC2FF7B
:101D700010B5104B5A680C231340082B01D00E48A5
:101D800010BD910C073319400C48445C0949C96ADD
:101D90000B400B49C95CD20304D50748FEF7B4F9E0
:101DA0006043EDE76201121B93019B1ADB001B19D4
:101DB0001802E5E70010024000127A0080230008B4
:101DC0007023000870B504000D00002800D17EE0EB
:101DD000434B1A68012313408B420AD240490B68D7
:101DE000012293432B430B600B681A40AA4200D098
:101DF0006FE023689A070ED55B0705D5394A51680D
:101E0000E023DB000B435360364A5368F0218B43D9
:101E1000A1680B4353602368DB072DD56368012B52
:101E20001ED0022B22D02F4A1268920753D52D497B
:101E30004A680320824313434B6000F0A1F8060078
:101E4000284B5B680C221A4063689B009A4213D0AF
:101E500000F096F8801B244B9842F1D9032035E01E
:101E6000204A12689203E2D401202FE01D4A126832
:101E70009201DCD4012029E0194B1A680123134098
:101E8000AB4209D916490B68012293432B430B60DF
:101E90000B681A40AA4220D123685B0706D5114A75
:101EA000536812490B40E1680B435360FFF760FF32
:101EB0000C4B5A6812090F2313400D4AD35CD840CB
:101EC0000C4B1860032000F017F8002070BD0120B3
:101ED000FCE70120FAE70120F8E70120F6E7C04619
:101EE000002002400010024088130000FFF8FFFFAE
:101EF000902300081C00002010B504000F4B197837
:101F0000FA208000FEF700F901000D4B1868FEF77B
:101F1000FBF800F067F900280DD1032C01D901204E
:101F20000AE0013000222100404200F057F9054B41
:101F30001C60002000E0012010BDC04614000020FD
:101F40001C0000201800002010B5064A136810215C
:101F50000B4313600320FFF7CFFFFFF7A3FC002024
:101F600010BDC04600200240034A1168034B1B7895
:101F70005B1813607047C046D0000020140000209A
:101F8000014B18687047C046D000002070B50400AF
:101F9000FFF7F6FF0500631C02D0044B1B78E41822
:101FA000FFF7EEFF401BA042FAD370BD14000020E3
:101FB000F0B583B0002356E086685F000324BC4080
:101FC000A643CC68BC4034438460446894434E6864
:101FD0003609012232409A402243426053E0DE0833
:101FE0000836B600375805321A4092000F24944044
:101FF000A7430C69944022003A43325056E003262E
:1020000000E00026A64034003C4302329200444ED9
:102010009451444A9768EA433E00AE434C68E40258
:1020200001D53E002E433F4CA660E7683E001640B7
:102030004C68A40201D53E002E433A4CE660676826
:102040003E0016404C68A40301D53E002E43354C9B
:102050006660266832404C68E40301D52A003243AA
:10206000304C226001330C682200DA4056D0012245
:102070009A40250015401442F4D04E6803243440A1
:10208000013C012C98D94C6803222240032A08D035
:10209000C4685E000322B24094438A68B24022437F
:1020A000C2604C6803222240022A98D004685E0075
:1020B00003221700B740BC434F683A40B240224366
:1020C00002604C68C02292021442CBD0164CA66922
:1020D00001221643A661A46922400192019A9A083E
:1020E000941CA4000E4EA75903241C40A4000F26E4
:1020F000A640B7439026F605B04282D00B4EB042C0
:1021000008D00B4EB04207D00A4EB04200D176E75D
:10211000052677E7012675E7022673E703B0F0BDD1
:10212000000001400004014000100240000400488B
:1021300000080048000C0048002A01D08161704767
:102140008162FCE770B5002811DB8308134DC033B2
:102150009B005C5903221040C000FC3216008640F0
:10216000B44389010A40824022435A5170BD0F2373
:102170000340083B9B0806339B00094A944663448E
:102180005C6803221040C000FC3215008540AC435F
:1021900089010A40824022435A60E7E700E100E0FB
:1021A00000ED00E0013880235B0498420FD2094A19
:1021B00050600948036A1B021B0AC02109060B4331
:1021C00003620023936007331360002070470120EF
:1021D000FCE7C04610E000E000ED00E010B5FFF7BE
:1021E000B1FF10BD10B5FFF7DDFF10BD7047000057
:1021F0000D488546FFF7FAFF0C480D490D4A0023AC
:1022000002E0D458C4500433C4188C42F9D30A4AAB
:102210000A4C002301E013600432A242FBD300F019
:1022200019F8FFF7B5FAFEE70020002000000020B3
:1022300020000020A823000820000020D400002057
:10224000FEE703008218934200D1704719700133F2
:10225000F9E7000070B500260C4C0D4D641BA4106E
:10226000A64209D1002600F019F80A4C0A4D641B59
:10227000A410A64205D170BDB300EB5898470136B3
:10228000EEE7B300EB5898470136F2E7A0230008C9
:10229000A0230008A4230008A0230008F8B5C04626
:1022A000F8BC08BC9E467047F8B5C046F8BC08BCF0
:0422B0009E4670478F
:1022B400BA050008E6040008D00400084C0500082C
:1022C400D004000880050008D00400084C0500086C
:1022D400E6040008E6040008800500084C05000830
:1022E400BC040008BC040008BC0400088A050008FB
:1022F400E6040008E6040008D004000826060008E6
:10230400D004000880050008D00400082606000850
:10231400E6040008E6040008800500082606000814
:10232400BC040008BC040008BC0400082C0E00080F
:10233400EA0C0008C80C0008B40C0008C80C00081B
:10234400CE0D0008C80C0008B40C0008EA0C000804
:10235400EA0C0008CE0D0008B40C0008AC0C000810
:10236400AC0C0008AC0C0008F00D000801020304DA
:1023740005060708090A0B0C0D0E0F1002030405CD
:10238400060708090A0B0C0D0E0F101000000000C0
:0C23940000000000010203040607080915
:0423A000E900000848
:0423A400C10000086C
:1023A80080000000A0000000C0000000E000000065
:1023B80000010000010000000400000000127A0083
:04000005080021F1DD
:00000001FF
