:020000040800F2
:1000000000200020F9230008B5180008B9180008DE
:1000100000000000000000000000000000000000E0
:10002000000000000000000000000000BD180008F3
:100030000000000000000000C1180008C5180008FA
:1000400049240008492400084924000849240008DC
:1000500049240008492400084924000849240008CC
:1000600049240008492400084924000849240008BC
:1000700049240008492400084924000849240008AC
:100080004924000849240008000000004924000811
:10009000492400084924000849240008492400088C
:1000A000492400084924000849240008492400087C
:1000B0004924000800000000492400080000000056
:1000C00010B5064C2378002B07D1054B002B02D02E
:1000D000044800E000BF0123237010BD2000002071
:1000E00000000000A4240008044B10B5002B03D02E
:1000F0000349044800E000BF10BDC04600000000F6
:1001000024000020A4240008002243088B4274D35A
:1001100003098B425FD3030A8B4244D3030B8B4208
:1001200028D3030C8B420DD3FF22090212BA030C11
:100130008B4202D31212090265D0030B8B4219D3F2
:1001400000E0090AC30B8B4201D3CB03C01A524112
:10015000830B8B4201D38B03C01A5241430B8B425A
:1001600001D34B03C01A5241030B8B4201D30B0343
:10017000C01A5241C30A8B4201D3CB02C01A52416A
:10018000830A8B4201D38B02C01A5241430A8B422D
:1001900001D34B02C01A5241030A8B4201D30B0216
:1001A000C01A5241CDD2C3098B4201D3CB01C01A30
:1001B000524183098B4201D38B01C01A524143093A
:1001C0008B4201D34B01C01A524103098B4201D328
:1001D0000B01C01A5241C3088B4201D3CB00C01A95
:1001E000524183088B4201D38B00C01A524143080D
:1001F0008B4201D34B00C01A5241411A00D2014632
:10020000524110467047FFE701B5002000F0F0F8BA
:1002100002BDC0460029F7D076E7704703460B437E
:100220007FD4002243088B4274D303098B425FD3EF
:10023000030A8B4244D3030B8B4228D3030C8B421B
:100240000DD3FF22090212BA030C8B4202D3121201
:10025000090265D0030B8B4219D300E0090AC30BD6
:100260008B4201D3CB03C01A5241830B8B4201D383
:100270008B03C01A5241430B8B4201D34B03C01A6C
:100280005241030B8B4201D30B03C01A5241C30AE4
:100290008B4201D3CB02C01A5241830A8B4201D355
:1002A0008B02C01A5241430A8B4201D34B02C01A3F
:1002B0005241030A8B4201D30B02C01A5241CDD2E4
:1002C000C3098B4201D3CB01C01A524183098B422F
:1002D00001D38B01C01A524143098B4201D34B0118
:1002E000C01A524103098B4201D30B01C01A52417B
:1002F000C3088B4201D3CB00C01A524183088B4202
:1003000001D38B00C01A524143088B4201D34B00EA
:10031000C01A5241411A00D201465241104670475C
:100320005DE0CA0F00D04942031000D34042534061
:1003300000229C4603098B422DD3030A8B4212D321
:10034000FC22890112BA030A8B420CD38901921153
:100350008B4208D3890192118B4204D389013AD090
:10036000921100E08909C3098B4201D3CB01C01A65
:10037000524183098B4201D38B01C01A5241430978
:100380008B4201D34B01C01A524103098B4201D366
:100390000B01C01A5241C3088B4201D3CB00C01AD3
:1003A000524183088B4201D38B00C01A5241D9D2EB
:1003B00043088B4201D34B00C01A5241411A00D26C
:1003C0000146634652415B10104601D34042002B68
:1003D00000D54942704763465B1000D3404201B5E7
:1003E000002000F005F802BD0029F8D016E770479C
:1003F0007047C0469E2110B5C905041C00F0EAFFF5
:10040000002803D1201C00F087FB10BD9E21201C7A
:10041000C90500F01DF900F07FFB80231B069C46F8
:100420006044F2E7F0B546464F46D6464502C0B5B1
:10043000C30F470098460E1C6D0A3F0E5BD0FF2F7E
:1004400021D08023ED00DB041D43002399469A460A
:100450007F3F74027300640A1B0EF60F002B20D03E
:10046000FF2B43D080220020E400D20414437F3BC2
:100470004246FF1A4B4672400F2B00D99DE071494E
:100480009B00CB589F46002D5AD108239946063B26
:1004900074029A467300FF27640A1B0EF60F002BA6
:1004A000DED1002C3BD1012342464946724019431C
:1004B0000E2918D86448890041588F465346022BAC
:1004C00000D1B8E0032B6ED042462C00012B40D166
:1004D00000200024C0052043D2071043E0BCBA46E8
:1004E000B146A846F0BDFF200024F3E7002C20D140
:1004F0000223FF3FD8E7002D05D104239946033B93
:1005000000279A46A5E7280000F06EFF7627431FD4
:100510009D4000237F4299469A463F1A99E7200062
:1005200000F062FF431F9C4076235B421B1A0020B1
:100530009EE703234A461A4391460320FC3397E77C
:100540000C239946093BFF279A4682E703282CD0C3
:10055000320038007F30002847DD630704D00F23C6
:100560002340042B00D00434230103D53800374B3B
:1005700080301C40FE28B6DCA401640AC0B2A9E7A2
:1005800080240022FF20E403A4E78023DB031D4234
:1005900001D01C420BD08024E4032C436402424669
:1005A000FF20640A96E746462C008023DB031C43A9
:1005B00064023200FF20640A8CE76D01600185420D
:1005C0002DD21B230024013F0126290064006D0069
:1005D000002901DB854201D32D1A3443013B002B56
:1005E000F3D16B1E9D412C43B3E701231B1A1B2B38
:1005F00000DD6DE721009E37D940BC400B00611E35
:100600008C412343590704D00F211940042900D0FD
:100610000433590113D49B0100205C0A5AE71A23C2
:1006200001242D1AD0E7981E43425841404232001F
:100630000024C0B24EE74246FF2000244AE70120D2
:10064000002447E7BC240008FC240008FFFFFFF754
:10065000F8B54746CE46430280B55F0A9B09450080
:100660004A009C464B02C40FCE0F2D0E580A120EA4
:100670009909FF2A6BD001235E40AB1AB4424BD0DC
:10068000002B00DCFFE0002A00D188E0FF2D00D124
:10069000EFE08022D204114301201B2B08DC08006C
:1006A0002022D840D31A99400B005A1E9341184378
:1006B00063461B1A9C4663465B0100D4CDE063464B
:1006C0009F01BF09380000F08FFE3B0005388340D2
:1006D000854200DCA2E0B74A2D1A1A4094465A0718
:1006E00000D1C3E00F221340042B00D1BEE004234D
:1006F0009846C44463465B0100D4B7E0681CFE2DF5
:1007000000D0A5E0FF200022C0051043E4072043ED
:10071000C0BCB946B046F8BD002B00DCEBE1002AB6
:1007200046D0FF2D00D1A4E08022D20411431B2B20
:1007300000DCFBE0052398462B00C4446246D70842
:10074000FF2B00D195E07A02520AD8B2DCE72B00E9
:10075000FF3B9946002918D101235E40B44200D1E5
:10076000CAE04B46002B2DD0002D00D03CE1FF23EA
:100770006446002C00D15FE15D1E012B00D174E1C5
:100780003400FF2B74D02B0003E1B44200D19CE075
:10079000002B17D0002DEAD0070034006CE00029B0
:1007A000CCD05A1E012B2BD0FF2B62D0130073E745
:1007B0000029C3D05A1E012B00D11EE1FF2B58D0B7
:1007C0001300B4E7FE226B1C1A420DD1002D60D03D
:1007D0006346002B00D020E1002900D028E18022D0
:1007E0000024FF20D2038FE763465F1A7B0100D508
:1007F000FEE0002F00D065E700240020002283E700
:100800006346591A4B0100D419E18F01BF09380022
:1008100000F0EAFD3B000538834001252022401B03
:100820000130121A19009340C1405A1E93411943D6
:100830008C460B1EE1D05B0700D152E10F2300254F
:100840000B40042B00D052E701204A0100D492E073
:10085000C0B263469A01520A56E763465B0705D069
:100860000F2362461340042B00D040E72B0065E7BE
:100870000700002F00D145E78022D2033A435202FD
:10088000FF20520A40E7002B79D1FE226B1C1A424E
:10089000AAD16346002B00D1F5E0002900D1D1E0B8
:1008A0005F1A8023DB041F4200D10EE1624601245F
:1008B0008A1A944600203440002A00D124E70120FF
:1008C0001A42C6D10023D7083DE7002B17D0002DD0
:1008D00000D0AFE0FF236546002D00D1ADE05E1EE5
:1008E000012B00D189E0FF2BC2D01B2E00DCABE036
:1008F0004B1D9C46130021E74B46002B70D1FE2276
:100900006B1C1A425ED1002D00D0C3E06346002B61
:1009100000D1D0E0002900D194E00A0062445301E4
:1009200000D4D8E092010120520AEDE6080020220E
:10093000D840D31A99400B005A1E934103439C445C
:1009400063465B0189D50135FF2D00D1DAE66246A9
:1009500001231949134052080A401A4313009446D0
:100960005B0704D00F231340042B00D0BFE663467F
:100970005B0100D5C2E66346DF082B00E3E6531BAC
:10098000002D00D1F4E680206446C0040443A44650
:10099000340001201B2B09DC20256046D840EB1ACF
:1009A00065469D402B005D1EAB4118430B1A9C46CB
:1009B000150080E6FFFFFFFBFFFFFF7DFE226B1CA3
:1009C0001342A3D0FF2B00D19CE6614449084A079B
:1009D00049D00F220A40042A45D00A1D9446ADE6AC
:1009E000002D00D176E78DE63400FF2000228BE653
:1009F00063460124CF1A344064E661444B016DD54F
:100A000048084449014043072CD00F230340042BDE
:100A100028D00B1D9C46022390E6002900D12BE72D
:100A20008023DB039F4200D226E7984200D323E7CE
:100A30000124344007001FE734008C467EE6012382
:100A4000CF0880E600237EE620206546801B854097
:100A500063462800F340451EA84103439C46150009
:100A60008C446DE70223CF086DE60F1B7B0128D570
:100A7000BF01BF09380000F0B7FC3B0005388340D8
:100A800034000125CAE6002900D1B5E6012407009B
:100A9000344058E66346002B00D1E9E6002900D136
:100AA000EAE68023DB039F4200D2E5E6984200D3CA
:100AB000E2E60700E0E6002900D19EE60023CF0829
:100AC00041E634000123FF083DE6002F00D193E604
:100AD0000023FF0837E60023D70834E60123CF08B8
:100AE00031E680220B00D20401201340114200D0D5
:100AF000AEE6CF0827E6002B00D15FE7561B002D9E
:100B000001D13300E7E680236046DB0418438446C6
:100B1000EBE6C046FFFFFF7D41024200C30F490ADA
:100B20000020120E7E2A03DD9D2A02DD094A981854
:100B30007047802000040143952A07DC9620821A22
:100B4000D1404842002BF3D10800F1E7963A91409A
:100B5000F7E7C046FFFFFF7F70B5002812D0C3172C
:100B6000C5185D40C40F280000F03EFC9E231B1AF0
:100B7000962B0FDC082838D0083885406D026D0AA6
:100B8000D8B202E0002400200025C0052843E40775
:100B9000204370BD992B14DC421F95402A00154953
:100BA000114055071CD00F252A40042A18D00431C3
:100BB000CA08490115D59F235202181A550AC0B216
:100BC000E3E705222900121AD14002001B329540AA
:100BD0002A00551EAA410A43064911405507E2D191
:100BE000CA085202550AD8B2CFE76D026D0A8E309C
:100BF000CBE7C046FFFFFFFBF0B5DE464546574654
:100C00004E46E0B587B0009201930B031B0B9B4649
:100C1000CA0F4B00040080465B0D029200D198E0A1
:100C20007C4A934237D05946420FC9000A4380217B
:100C300009041143C2009046774A894692469A4475
:100C4000002300240393009E019F3B031B0B9B4644
:100C50007B0030005B0DFD0F002B59D06D4A934295
:100C600048D05946720FC9000A4380210904114334
:100C70008B466949F2008C4651466344CB1A9A462A
:100C80000021029E6E40F6B20F2C00D9CEE0634BDD
:100C9000A4001B599F465A460243914600D090E05B
:100CA0009A460223904608240393CCE7CB4642465B
:100CB000029D0399022900D1DEE1032900D18DE0D4
:100CC000012900D079E12E00002200230024904663
:100CD0001B052343F60733434046190007B0F0BC19
:100CE000BB46B246A946A046F0BD0022002490466D
:100CF000484BEDE75A46009B1A43494B9C46E24459
:100D0000002A59D102231C43002302219B46B8E745
:100D10005A46009B1A4349D05B46002B00D19CE108
:100D2000584600F061FB020003000B3A1D27009EAD
:100D3000BA1A19005846D640083988403200024392
:100D40009346009A8A40374953448A4600219A4480
:100D500097E75B460343994621D05B46002B00D1C1
:100D600069E1584600F040FB0B235B429C460200C1
:100D7000844466461D239B1B260011005846DE4016
:100D80000839884033000343994623008B40984636
:100D9000254B00249B1A9A460023039353E7002314
:100DA00098469A460133042403934CE701231C43DD
:100DB000002301219B4664E70323320003211C43E7
:100DC0005FE79A460323D9460C2403933BE70023AD
:100DD0008024984600260F4B240379E780245B4645
:100DE00024031C4324032E0090460A4B240B6FE778
:100DF00080244B462403234202D05B462342F0D09A
:100E000080244B4624031C432403029E014B240BE5
:100E10005EE7C046FF07000001FCFFFF3825000821
:100E200001F8FFFFF30300000DFCFFFFCB4500D2EC
:100E3000F8E000D1F3E001235B429C46444648467B
:100E40000025E2445B46170E1B021F43190C3B04AE
:100E5000120200971F0C914602910397FFF7DAF9EF
:100E600002007A430B04210C804619438A4209D9B7
:100E7000009F0123BC465B4261449C46E0448F4294
:100E800000D85CE1881A0299FFF7C4F9039A240498
:100E900042430904240C03000C43A24206D90099E2
:100EA000013B8C466444A14200D842E1A01A42466C
:100EB00012041A4393464B4659461B0C1F000493D9
:100EC0000B0449460904090C0C001B0C5C43120C72
:100ED0007B43884651437A43270CBC465B186344E6
:100EE000994203D9802149028C466244190C24049A
:100EF0001B04240C8A181C19904202D316D1A54257
:100F000014D25B46009F013B4D4405934D459B41E8
:100F1000BC465B426344C018874200D302E1824270
:100F200000D929E100D124E1059B9B462C1BA54259
:100F3000AD41009B801A6D42401B834200D10FE1FE
:100F40000299FFF767F9039A0B044243210C05004D
:100F500019438A4200D9CBE0881A0299FFF75AF95F
:100F6000039A240442430904240C03000C43A242C4
:100F700000D9CAE04146A41A2A041A43049F130464
:100F80001B0C594340467B439C46150C68430B0C95
:100F9000844463447D43984203D9802040028446C0
:100FA0006544180C09041B04090C40195B188442A1
:100FB00027D323D0012335001A43944B5344002BED
:100FC00060DD510700D086E02E00D1085A46D201DC
:100FD00006D55A468E4B1A4080239346DB00534475
:100FE0008C4A934200DD80E65A4652070A439046F7
:100FF0005A465B055402240B5B0D69E63500002B55
:10100000DBD0009D511EAC466444AC4200D29EE051
:10101000844200D2E1E000D1EEE00A00CAE7424596
:1010200000D908E74B46DC07580843465B081C43D9
:101030004346DD0706E700F0D7F915239C468444B4
:101040000200634620321C2B00DC92E623000838A5
:1010500083409946002398469AE600F0C5F90200BD
:101060000300153220331C2A00DC5FE600990838A3
:10107000814000228B4666E600222E000024904626
:10108000654B25E62E000121C91A382900DD1BE633
:101090001F297EDC6148140050445B468240834037
:1010A000CC40501E824123431A435B46CB4051073C
:1010B00009D00F211140042905D0111D9142924100
:1010C00052429B180A00190200D49BE0002201231F
:1010D00000249046FCE50F211140042900D173E75C
:1010E000111D9142924152422E00C90893446DE76E
:1010F000009B013D9C4661448B4200D92CE78A420B
:1011000000D829E7851E614426E70099013B8C46FB
:101110006444A14200D92DE7A24200D82AE7831EE9
:10112000644427E7874200D0FEE6A94500D9FBE6E4
:10113000F5E6A24200D8B9E6831E6444B6E68A42C8
:1011400000D89FE6BC46831E984661449AE60A0092
:10115000844200D02EE74B4500D02BE735002CE72A
:101160002A4B2F4A5344924543DB012200219344EA
:101170002CE7AC4200D8D7E602235B429C4600999C
:101180004D444D459B41E3448C465B426344C0184B
:10119000CCE61F204042C31A5846D840202904D02C
:1011A0005946204B534499400A43531E9A41072302
:1011B0001900024300241140134209D008331340A0
:1011C000042B1DD0131D934289411A00494249073F
:1011D000D2080A43904600237AE54946009F4D0015
:1011E0004D458941BC4649426144A946023A6418CA
:1011F000AEE70122524246E79945EED30A00AAE73C
:101200000021E5E759075B021C0BE1E7FF03000043
:10121000FFFFFFFEFE070000FF0700001E040000A6
:1012200002FCFFFF3E04000010B5041E10D000F0C9
:10123000DBF80E4B1B1A5B055B0D0A280FDC0B223B
:101240002100121AD14015300A038440120B01E02C
:10125000002300221B0513432000190010BD2200AB
:101260000B38824012030024120BF3E71E04000027
:10127000F0B54B000F035B0D3A4C450F83B07F0A6E
:101280005E1C2F4300900191CA0FC50026420BD06F
:1012900035495C18FE2C13DDFF200023C0051843E0
:1012A000D207104303B0F0BD3D43002B01D1002015
:1012B000F4E7002DF0D08023DB03FF203B43EDE774
:1012C000002C0CDD009BFF009B01581E8341690F21
:1012D0003B430B43590727D1DB08E0B2DEE721008F
:1012E000173131DB80211E2009043943001B1F28E0
:1012F0002DDD02267642341B0E00E6403400202805
:1013000004D01A488446634499400D432B00591E6B
:101310008B412343590703D00F21194004290BD1D6
:101320009B0100205B0AB9E70F211940042904D171
:101330009B015B0AE0B2B1E7002404335901F7D501
:1013400001340023E0B2A9E700200023A6E7084CFF
:101350001C192B00A540C340A140681E85412943AC
:101360000B43D7E7FE07000080FCFFFFA2FCFFFF56
:1013700082FCFFFF844608006146FFE71FB500F0CE
:10138000C1F8002801D40021C8421FBD10B500F0EB
:1013900049F84042013010BD10B500F0B3F8002804
:1013A00001DB002010BD012010BDC04610B500F0CB
:1013B000A9F8002801DD002010BD012010BDC046A5
:1013C00010B500F057F8002801DC002010BD012006
:1013D00010BDC04610B500F04DF8002801DA00201D
:1013E00010BD012010BDC0461C2101231B049842E2
:1013F00001D3000C10391B0A984201D3000A0839A6
:101400001B09984201D30009043902A2105C40185C
:101410007047C04604030202010101010000000000
:101420000000000070B542004E024C0045026D0AFB
:10143000120EC30F760A240EC90FFF2A10D0FF2CFC
:101440000CD00120A2420AD1B54208D18B420FD064
:10145000002A04D12800431E984100E0012070BDFD
:101460000120FF2CFBD13543F9D14B401800F6E7A2
:101470000020F4E730B5420044024D02C30F48009B
:10148000640A120E6D0A000EC90FFF2A18D0FF2839
:101490000AD0002A1ED100280AD1002D29D0002C04
:1014A0002DD14800013830BD002D25D1002A01D1B1
:1014B000002CF6D08B4219D001205B421843F2E792
:1014C000002C19D1FF28F7D1002D15D100208B4217
:1014D000F2D1E8E70028EFD08B42EDD18242EBDC7D
:1014E00004DBAC42E8D80020AC42DCD25800013822
:1014F000D9E7002CD7D0DFE702204042D3E78B4268
:10150000DAD1EEE730B5420044024D02C30F480085
:10151000640A120E6D0A000EC90FFF2A17D0FF28A9
:101520000AD0002A1BD100280AD1002D1DD0002C82
:101530002DD14800013811E0002D0ED1002A01D133
:10154000002CF6D08B420CD15800013806E0002C5C
:1015500003D1FF2805D1002D15D0022030BD002871
:1015600006D101205B421843F8E7002CF6D0F8E7DB
:101570008B42F6D18242F4DCE6DBAC42F1D80020AB
:10158000AC42EBD2E0E700208B42EAD1E6E78B42A7
:10159000E7D1F2E700B591B02C22002105A800F0B8
:1015A00054FF10220021684600F04FFF0223012261
:1015B00004930C93A02307929B030F3204A8089274
:1015C0000E9300F09BF9002801D072B6FEE70722C7
:1015D0000223009201930022002301216846029217
:1015E000039300F0E3FB002801D072B6FEE711B0D0
:1015F00000BDC046F0B5DE464E4657464546E0B50E
:101600009FB000F0A9FCFFF7C5FF1422002118A825
:1016100000F01BFF8022954CD2036369FF21134326
:10162000636163699248134080221593159B636937
:10163000D20213436361636900271340802216932B
:10164000169B6369920213436361636913401793A6
:101650000022179B00F084FEFF22012318921993A9
:1016600000220023824818A91A921B9300F0A8FCBC
:101670000121E36901200B43E361E36900220B4090
:101680001893189B80234042DB059A62D8625A6205
:101690001A68784E0A431A60774B784C9B46784B11
:1016A00010940993774B11960A93774B0B93774BD2
:1016B0000C93774B9946774B0D93774B0E93774B63
:1016C0000F935B46CB46089301220121684800F046
:1016D00047FE00F05DFC0A9B002218608023DB05BA
:1016E0005A625B6A0B9A00241360089B0C9A1B6871
:1016F0009A460023136054605346002B00DCB0E090
:1017000052465B019B1A9B0053441B0198460022E2
:101710000023049205935346514606934346002402
:101720005F4E079371435B4625008B4612971393D8
:1017300028000699FEF772FD5A4BA946C6180023E9
:101740009A46019650460699FEF768FD564B0026CC
:1017500098460024804400270023002001E0642EE6
:101760007AD0FA21C01A8900FEF758FD40443D00A6
:10177000FA210700200049006843FEF74FFD019B56
:101780004A49C4182300380063437843C21801361D
:101790008A42E4DDF31702960393049B059C0299A9
:1017A000039A5B185441049305943D4B9C46E244D4
:1017B000D345C7D1FA23DB009C464D46079B6544C1
:1017C000AB42B5D1139B0C9A9B46049B059C1360BE
:1017D0005460129F099A18C2099200F0D9FB5B4627
:1017E00018600A9B1B68C01A0D9BD8518023DB052B
:1017F000586A119B18600B9B1B68C01A0E9BD8512E
:10180000FFF712FD00222A4BFFF7F6F9FFF730FD34
:101810000F9B041CD851089B01CB0893109B40439D
:10182000DD19FFF799F9211CFEF7FCFDFEF7E2FD3B
:101830000122022128600E4800F092FDFA2080006B
:1018400000F0ACFB043700220321094800F088FDBA
:10185000142F00D038E7FEE764230024029303949A
:101860009BE70023002404930594B3E70010024093
:1018700000040048B8000020000000203C000020C8
:1018800090000020CC000020BC000020C000002000
:10189000C8000020780000206400002050000020D4
:1018A000AC0D000018FCFFFF3CF6FFFFE70C3D000D
:1018B00060E38641FEE7C046FEE7C0467047C0468B
:1018C0007047C04610B500F057FB10BD01220A4B0F
:1018D00082B099691143996199690A408021009207
:1018E000009ADA6949050A43DA61DB690B40019322
:1018F000019B02B07047C04600100240F0B5CE46D2
:10190000474680B5040083B0002800D1F2E00368A8
:10191000DA0735D50C21C34842680A40042A00D1B1
:1019200001E142681140082900D1F8E06368012B09
:101930000FD0002B00D11EE1052B00D1A7E1B94B40
:10194000B9491A680A401A601A68B8490A401A6008
:1019500005E08023B34A5B0211680B43136000F07B
:1019600017FB80260500AF4FB60205E000F010FB24
:10197000401B642800D9FCE03B683342F6D0236862
:101980009A0729D50C22A7494868024200D1AAE04B
:1019900048680240082A00D1A1E0E368A14D002B6D
:1019A00000D11FE101222B68022713432B6000F0B6
:1019B000EFFA060005E000F0EBFA801B022800D9E0
:1019C000D7E02B681F42F6D0F8212A6823698A43A2
:1019D000DB0013432B6023681A072DD45A0744D524
:1019E000802200208F4B5205D9698146114208D1CF
:1019F000D9691143D961DB6913400193019B01232C
:101A0000994680278A4E7F0033683B4200D194E09C
:101A1000A368012B00D1F8E0002B00D1C4E0052B16
:101A200000D140E101217F4B1A6A8A431A621A6A87
:101A300003318A431A62ECE0E3697A4D002B5BD0F4
:101A400001226B6A022713436B6200F0A1FA0600C1
:101A500005E000F09DFA801B022800D989E06B6A3E
:101A60001F42F6D023685A07BAD4DB0612D5636941
:101A7000012B00D13CE1053300D0E9E00421F8203E
:101A8000684A536B8B435363516BA3698143DB00FB
:101A90000B435363236A002B1BD00C22614D6968F2
:101AA0000A40082A00D108E1022B00D13EE12B6850
:101AB000604A802613402B6000F06AFAB6040400E6
:101AC00004E000F065FA001B022852D82B6833426C
:101AD000F7D1002003B0C0BCB946B046F0BD4A689B
:101AE000D20300D559E74F4A1268920735D5E2680C
:101AF000012A32D00120EDE701226B6A02279343CD
:101B00006B6200F045FA060004E000F041FA801B29
:101B100002282ED86B6A1F42F7D12368A3E74268D8
:101B2000D20300D402E73F4A1268920300D427E7A9
:101B30006268002A00D023E7DCE733683B43336068
:101B400000F026FA050004E000F022FA401B6428A9
:101B50000FD833683B42F7D05AE7F825314822695D
:101B60000168D200A9430A4302601A0700D435E78E
:101B700062E70320AEE72B4D2B4A2B6880271340EA
:101B80002B602B68294ABF0213402B6000F000FA3B
:101B9000060004E000F0FCF9801B6428E9D82B68FB
:101BA0003B42F7D12368EBE601221E4E224D336AF9
:101BB00093433362336A03329343336200F0E8F9AC
:101BC00002230700984604E000F0E2F9C01BA84297
:101BD000CFD84246336A1A42F6D14B46012B4FD03A
:101BE000236842E701222B68022793432B6000F011
:101BF000CFF9060004E000F0CBF9801B0228B8D82A
:101C00002B681F42F7D12368E6E606490A6A1343A8
:101C10000B6200F0BDF9034B060098460227064D03
:101C200011E0C04600100240FFFFFEFFFFFFFBFF78
:101C300000700040FFFFFFFE8813000000F0A8F9CD
:101C4000801BA84295D843461B6A1F42F6D0C4E7C2
:101C50000422524D02276B6B13436B636B6B033A89
:101C600093436B6300F094F9060005E000F090F9EF
:101C7000801B022800D97CE76B6B1F42F6D109E775
:101C8000464A4749D3690B40D3612368EDE6802279
:101C9000424BD20219680A431A6080221968520224
:101CA0000A431A605BE604213C4B1A6A0A431A6233
:101CB0001A6A03390A431A62ABE7012B00D119E70C
:101CC00080226B68616A5202E86A1A408A4200D038
:101CD00010E70F22E16A02408A4200D00AE7F022B0
:101CE000A06A92031340181A431E9841C0B2F1E64D
:101CF00004212A4D02276A6B0A436A636A6B134305
:101D00006B6300F045F9060005E000F041F9801B27
:101D1000022800D92DE76B6B1F42F6D0F8216A6BC1
:101D2000A3698A43DB0013436B63B3E62B681D4A48
:101D3000802713402B6000F02BF9BF04060005E05C
:101D400000F026F9801B022800D912E72B683B42DD
:101D5000F6D10F22EB6A114E9343E26A1343EB6212
:101D6000616AA36A6A680B430F490A4013436B60B8
:101D700080232A685B0413432B6000F009F9802557
:101D80000400AD0405E000F003F9001B022800D9AF
:101D9000EFE633682B42F6D09BE6C04600100240C7
:101DA000FFFFFFEFFFFFFFFEFFFFC2FFF8B5CE46CC
:101DB000474604000D0080B500280DD001234A4994
:101DC0000A681A40AA420CD20A689A432A430A6057
:101DD0000A681340AB4204D00120C0BCB946B046EB
:101DE000F8BD23689A070ED55A0705D5E0223F496A
:101DF000D200486802434A60F0203C494A68824366
:101E0000A06802434A60DB0722D5384B62681B6832
:101E1000012A5BD0022A56D09B07DDD50321334E21
:101E200073688B431343736000F0B2F80C23984639
:101E30002F4B0700994604E000F0AAF8C01B484564
:101E400047D8434672681A4063689B009A42F3D1B0
:101E50000121254A13680B40AB4205D913688B4317
:101E6000136013681942B7D123685B0706D51F4A70
:101E7000204953680B40E1680B4353600C231B4916
:101E80004A681340082B0ED01B48184B1B4A5B684E
:101E90001B491B061B0FD35CD8400860032000F0D1
:101EA00035F8002099E70F251648930C2B40C45CA9
:101EB000C96AD2030FD5144B0D40595D0E48FEF789
:101EC00023F96043E1E79B01A8D485E79B03A5D4F0
:101ED00082E7032081E763011B1B9801C01AC00041
:101EE00000190002D1E7C046002002400010024065
:101EF00088130000FFF8FFFF00127A009825000801
:101F00001C000020882500087825000870B5040012
:101F1000FA200E4B80001978FEF7F6F80C4D010000
:101F20002868FEF7F1F800F04BFA00280CD10130D8
:101F3000032C00D970BD02380022210000F016FAEF
:101F4000044B00201C60F5E70120F3E7140000209B
:101F50001C000020180000201021064A10B513684C
:101F600003200B431360FFF7D1FFFFF7AFFC002006
:101F700010BDC04600200240034A044B11681B7884
:101F80005B1813607047C046D0000020140000208A
:101F9000014B18687047C046D000002070B504009F
:101FA000FFF7F6FF0500631C02D0044B1B78E41812
:101FB000FFF7EEFF401BA042FAD370BD14000020D3
:101FC000F0B5DE4657464E464546E0B50A688B46B4
:101FD00087B0002A75D090210023C905884200D11E
:101FE000D2E0D949D94F8C465946029101219940F6
:101FF00088461140009141460A425ED0029C5D0035
:1020000061688B4603215C4621400324AC40E443D5
:102010004E1E0194012E5BD9032900D073E1A94023
:102020000668019C34402143C02401605946A40243
:10203000214242D061460124654689690F26214329
:10204000A961A96903252140C14C1D40A046AD00EE
:10205000AE40059105999908890041448C68B443C4
:10206000BC4EB04200D18BE0BB4EB04200D175E017
:10207000BA4EB04200D142E10526AE40344380263C
:102080005D468C60009C7603E443B968354200D01D
:1020900073E021405D46B960F968AD026AD4214021
:1020A0005D46F9607968AD0361D421405D46796091
:1020B0003968ED0356D42140396011000133D9400D
:1020C00094D107B0F0BCBB46B246A946A046F0BDCD
:1020D00086682640B246029EF668AE40B146564635
:1020E0004C4626438660446826004446A6435C4628
:1020F0002409B1462600012426409E40B0464E46A3
:10210000444626434660C4682600019C2640029C43
:10211000B146A4682600AE40B0464E46444626432B
:10212000C660022900D07AE7DC08A400A0468044FB
:102130004446266A07241C40A400A14603960F24A7
:102140004E46B440039EA64303964E46029C246925
:10215000B440039E26434446266260E70226AE4012
:1021600034438CE7009C0C4321003960A5E7009DB7
:1021700029439BE7009D294392E7009D294389E776
:102180000126AE4034437AE76F4900238A46594618
:102190000127029148E0032900D0C1E0A940066868
:1021A000019C34402143C02401605946A4022142CD
:1021B00035D05146544603250F2689691D403943C1
:1021C000A161A169624CAD00A446AE405D463940B4
:1021D000059105999908890061448C68B4438C6025
:1021E0005A49009C8968E443ED0200D584E021400F
:1021F000564DA960E9685D46AD027AD42140534D41
:10220000E96069685D46AD0370D421404F4D696057
:1022100029685D46ED0365D421404C4C21601100D6
:102220000133D94000D14CE7390099408C46114028
:10223000009161461142F2D002995D0049688B46D7
:1022400003215C4621400324AC40E4434E1E01942C
:10225000012EA0D886682640029CB146E668AE40B2
:10226000B0464E464446264386604468260064468F
:10227000A6435C462409B04626003E409E40B44634
:102280004646644626434660C4682600019C2640B4
:10229000029CB046A4682600AE40B446464664465A
:1022A0002643C660022900D078E7DC08A400A446D3
:1022B0009024E405A046C4446446266A07241C40D2
:1022C000A400A14603960F244E46B440039EA643A5
:1022D00003964E46029C2469B440039E26436446FE
:1022E00026625BE7009C0C43210096E7009D294392
:1022F0008CE7009D294382E7009D294378E7032668
:10230000AE403443BBE62600C4683440A146029C7C
:10231000A468AC40A0464C4646463443C4607EE6C2
:1023200026009024E405A046E4683440A146029CBF
:10233000A468AC40A4464C4666463443A446444692
:102340006646E6602AE7C0460010024000040140ED
:10235000000001400004004800080048000C00484C
:10236000002A01D0816170478162FCE7FF220323CC
:1023700010B514000340DB009C4089010A40E4438F
:102380009A4000280BDB0C4BC0219C468008800043
:1023900060448900435823401343435010BD0F232A
:1023A000064903408C46083B9B089B006344D9695F
:1023B0000C401443DC61F1E700E100E000ED00E0D7
:1023C0008022431E5204012093420ED2C021074AAC
:1023D00007485360036A09061B021B0A0B4303628A
:1023E00000230020936007331360704710E000E083
:1023F00000ED00E07047C0460D488546FFF7FAFF44
:102400000C480D490D4A002302E0D458C45004334F
:10241000C4188C42F9D30A4A0A4C002301E0136025
:102420000432A242FBD300F019F8FFF7E3F8FEE70D
:10243000002000200000002020000020B02500081F
:1024400020000020D4000020FEE703008218934201
:1024500000D1704719700133F9E7000070B500260C
:102460000C4C0D4D641BA410A64209D1002600F0AF
:1024700019F80A4C0A4D641BA410A64205D170BD80
:10248000B300EB5898470136EEE7B300EB58984796
:102490000136F2E7A8250008A8250008AC250008A9
:1024A000A8250008F8B5C046F8BC08BC9E46704791
:0C24B000F8B5C046F8BC08BC9E4670475A
:1024BC00BA050008E6040008D00400084C05000822
:1024CC00D004000880050008D00400084C05000862
:1024DC00E6040008E6040008800500084C05000826
:1024EC00BC040008BC040008BC0400088A050008F1
:1024FC00E6040008E6040008D004000826060008DC
:10250C00D004000880050008D00400082606000846
:10251C00E6040008E604000880050008260600080A
:10252C00BC040008BC040008BC0400082C0E000805
:10253C00EA0C0008C80C0008B40C0008C80C000811
:10254C00CE0D0008C80C0008B40C0008EA0C0008FA
:10255C00EA0C0008CE0D0008B40C0008AC0C000806
:10256C00AC0C0008AC0C0008F00D000801020304D0
:10257C0005060708090A0B0C0D0E0F1002030405C3
:10258C00060708090A0B0C0D0E0F101000000000B6
:0C259C000000000001020304060708090B
:0425A800E90000083E
:0425AC00C100000862
:1025B00080000000A0000000C0000000E00000005B
:1025C00000010000010000000400000000127A0079
:04000005080023F9D3
:00000001FF
